{
  "contractName": "EUL",
  "abi": [
    {
      "constant": true,
      "inputs": [],
      "name": "name",
      "outputs": [
        {
          "name": "",
          "type": "string"
        }
      ],
      "payable": false,
      "stateMutability": "view",
      "type": "function"
    },
    {
      "constant": false,
      "inputs": [
        {
          "name": "spender",
          "type": "address"
        },
        {
          "name": "value",
          "type": "uint256"
        }
      ],
      "name": "approve",
      "outputs": [
        {
          "name": "",
          "type": "bool"
        }
      ],
      "payable": false,
      "stateMutability": "nonpayable",
      "type": "function"
    },
    {
      "constant": true,
      "inputs": [],
      "name": "sumOfBurnedGNOValuedInUSDInLast30Days",
      "outputs": [
        {
          "name": "",
          "type": "uint256"
        }
      ],
      "payable": false,
      "stateMutability": "view",
      "type": "function"
    },
    {
      "constant": true,
      "inputs": [],
      "name": "totalSupply",
      "outputs": [
        {
          "name": "",
          "type": "uint256"
        }
      ],
      "payable": false,
      "stateMutability": "view",
      "type": "function"
    },
    {
      "constant": false,
      "inputs": [
        {
          "name": "from",
          "type": "address"
        },
        {
          "name": "to",
          "type": "address"
        },
        {
          "name": "value",
          "type": "uint256"
        }
      ],
      "name": "transferFrom",
      "outputs": [
        {
          "name": "",
          "type": "bool"
        }
      ],
      "payable": false,
      "stateMutability": "nonpayable",
      "type": "function"
    },
    {
      "constant": false,
      "inputs": [
        {
          "name": "amount",
          "type": "uint256"
        },
        {
          "name": "nonce",
          "type": "uint256"
        },
        {
          "name": "lockingPeriod",
          "type": "uint256"
        }
      ],
      "name": "lockGNO",
      "outputs": [],
      "payable": false,
      "stateMutability": "nonpayable",
      "type": "function"
    },
    {
      "constant": true,
      "inputs": [],
      "name": "decimals",
      "outputs": [
        {
          "name": "",
          "type": "uint8"
        }
      ],
      "payable": false,
      "stateMutability": "view",
      "type": "function"
    },
    {
      "constant": false,
      "inputs": [
        {
          "name": "amount",
          "type": "uint256"
        }
      ],
      "name": "burnedGNO",
      "outputs": [],
      "payable": false,
      "stateMutability": "nonpayable",
      "type": "function"
    },
    {
      "constant": false,
      "inputs": [
        {
          "name": "_GNOLockHash",
          "type": "bytes32"
        }
      ],
      "name": "relockGNO",
      "outputs": [],
      "payable": false,
      "stateMutability": "nonpayable",
      "type": "function"
    },
    {
      "constant": true,
      "inputs": [
        {
          "name": "owner",
          "type": "address"
        }
      ],
      "name": "balanceOf",
      "outputs": [
        {
          "name": "",
          "type": "uint256"
        }
      ],
      "payable": false,
      "stateMutability": "view",
      "type": "function"
    },
    {
      "constant": true,
      "inputs": [],
      "name": "amountOfGNOLocked",
      "outputs": [
        {
          "name": "",
          "type": "uint256"
        }
      ],
      "payable": false,
      "stateMutability": "view",
      "type": "function"
    },
    {
      "constant": true,
      "inputs": [
        {
          "name": "to",
          "type": "address"
        },
        {
          "name": "value",
          "type": "uint256"
        }
      ],
      "name": "amountOfGNOLockedInitially",
      "outputs": [
        {
          "name": "",
          "type": "uint256"
        }
      ],
      "payable": false,
      "stateMutability": "view",
      "type": "function"
    },
    {
      "constant": true,
      "inputs": [
        {
          "name": "_GNOLockHash",
          "type": "bytes32"
        }
      ],
      "name": "symbol",
      "outputs": [
        {
          "name": "",
          "type": "string"
        }
      ],
      "payable": false,
      "stateMutability": "view",
      "type": "function"
    },
    {
      "constant": false,
      "inputs": [
        {
          "name": "to",
          "type": "address"
        },
        {
          "name": "value",
          "type": "uint256"
        }
      ],
      "name": "transfer",
      "outputs": [
        {
          "name": "",
          "type": "bool"
        }
      ],
      "payable": false,
      "stateMutability": "nonpayable",
      "type": "function"
    },
    {
      "constant": false,
      "inputs": [
        {
          "name": "_GNOLockHash",
          "type": "bytes32"
        },
        {
          "name": "spender",
          "type": "address"
        }
      ],
      "name": "withdrawEUL",
      "outputs": [
        {
          "name": "",
          "type": "uint256"
        }
      ],
      "payable": false,
      "stateMutability": "nonpayable",
      "type": "function"
    },
    {
      "constant": false,
      "inputs": [
        {
          "name": "_GNOLockHash",
          "type": "bytes32"
        }
      ],
      "name": "unlockGNO",
      "outputs": [],
      "payable": false,
      "stateMutability": "nonpayable",
      "type": "function"
    },
    {
      "constant": true,
      "inputs": [
        {
          "name": "owner",
          "type": "address"
        },
        {
          "name": "spender",
          "type": "address"
        }
      ],
      "name": "allowance",
      "outputs": [
        {
          "name": "",
          "type": "uint256"
        }
      ],
      "payable": false,
      "stateMutability": "view",
      "type": "function"
    },
    {
      "inputs": [
        {
          "name": "maxAmount",
          "type": "uint256"
        },
        {
          "name": "_oracleContract",
          "type": "address"
        }
      ],
      "payable": false,
      "stateMutability": "nonpayable",
      "type": "function",
      "constant": false,
      "name": "burnEUL",
      "outputs": [
        {
          "name": "",
          "type": "uint256"
        }
      ]
    },
    {
      "anonymous": false,
      "inputs": [
        {
          "indexed": true,
          "name": "from",
          "type": "address"
        },
        {
          "indexed": true,
          "name": "to",
          "type": "address"
        },
        {
          "indexed": false,
          "name": "value",
          "type": "uint256"
        }
      ],
      "name": "sumOfEULBurndedLast30Days",
      "type": "function",
      "constant": true,
      "outputs": [
        {
          "name": "",
          "type": "uint256"
        }
      ],
      "payable": false,
      "stateMutability": "view"
    },
    {
      "anonymous": false,
      "inputs": [
        {
          "indexed": true,
          "name": "_GNOTokenAddress",
          "type": "address"
        },
        {
          "indexed": true,
          "name": "_oracleContract",
          "type": "address"
        },
        {
          "indexed": false,
          "name": "value",
          "type": "uint256"
        }
      ],
      "name": "Approval",
      "type": "constructor",
      "payable": false,
      "stateMutability": "nonpayable"
    },
    {
      "anonymous": false,
      "inputs": [
        {
          "indexed": true,
          "name": "from",
          "type": "address"
        },
        {
          "indexed": true,
          "name": "to",
          "type": "address"
        },
        {
          "indexed": false,
          "name": "value",
          "type": "uint256"
        }
      ],
      "name": "Transfer",
      "type": "event"
    },
    {
      "anonymous": false,
      "inputs": [
        {
          "indexed": true,
          "name": "owner",
          "type": "address"
        },
        {
          "indexed": true,
          "name": "spender",
          "type": "address"
        },
        {
          "indexed": false,
          "name": "value",
          "type": "uint256"
        }
      ],
      "name": "Approval",
      "type": "event"
    }
  ],
  "bytecode": "0x60606040526000600b5534156200001557600080fd5b6040516040806200243a8339810160405280805190602001909190805190602001909190505081600360006101000a81548173ffffffffffffffffffffffffffffffffffffffff021916908373ffffffffffffffffffffffffffffffffffffffff16021790555080600560006101000a81548173ffffffffffffffffffffffffffffffffffffffff021916908373ffffffffffffffffffffffffffffffffffffffff160217905550600360009054906101000a900473ffffffffffffffffffffffffffffffffffffffff1673ffffffffffffffffffffffffffffffffffffffff166318160ddd6000604051602001526040518163ffffffff167c0100000000000000000000000000000000000000000000000000000000028152600401602060405180830381600087803b15156200014c57600080fd5b6102c65a03f115156200015e57600080fd5b505050604051805190506000803373ffffffffffffffffffffffffffffffffffffffff1673ffffffffffffffffffffffffffffffffffffffff16815260200190815260200160002081905550600360009054906101000a900473ffffffffffffffffffffffffffffffffffffffff16620001d76200026c565b808273ffffffffffffffffffffffffffffffffffffffff1673ffffffffffffffffffffffffffffffffffffffff168152602001915050604051809103906000f08015156200022457600080fd5b600460006101000a81548173ffffffffffffffffffffffffffffffffffffffff021916908373ffffffffffffffffffffffffffffffffffffffff16021790555050506200027d565b60405161016180620022d983390190565b61204c806200028d6000396000f300606060405260043610610107576000357c0100000000000000000000000000000000000000000000000000000000900463ffffffff16806306fdde031461010c578063095ea7b31461019a5780630f952424146101f457806318160ddd1461021d57806323b872dd146102465780632fc59d95146102bf578063313ce567146102f45780634e1700ea146103235780634f90b92d1461034657806370a082311461036d5780637658d9d0146103ba578063871411e3146103e357806395d89b411461040c578063a9059cbb1461049a578063c2888f65146104f4578063d6f4af301461051b578063dd62ed3e14610542578063ec08fb2b146105ae578063fb8b16be146105e5575b600080fd5b341561011757600080fd5b61011f61060e565b6040518080602001828103825283818151815260200191508051906020019080838360005b8381101561015f578082015181840152602081019050610144565b50505050905090810190601f16801561018c5780820380516001836020036101000a031916815260200191505b509250505060405180910390f35b34156101a557600080fd5b6101da600480803573ffffffffffffffffffffffffffffffffffffffff16906020019091908035906020019091905050610647565b604051808215151515815260200191505060405180910390f35b34156101ff57600080fd5b610207610739565b6040518082815260200191505060405180910390f35b341561022857600080fd5b61023061073f565b6040518082815260200191505060405180910390f35b341561025157600080fd5b6102a5600480803573ffffffffffffffffffffffffffffffffffffffff1690602001909190803573ffffffffffffffffffffffffffffffffffffffff16906020019091908035906020019091905050610749565b604051808215151515815260200191505060405180910390f35b34156102ca57600080fd5b6102f26004808035906020019091908035906020019091908035906020019091905050610bbd565b005b34156102ff57600080fd5b610307610efd565b604051808260ff1660ff16815260200191505060405180910390f35b341561032e57600080fd5b6103446004808035906020019091905050610f02565b005b341561035157600080fd5b61036b600480803560001916906020019091905050611314565b005b341561037857600080fd5b6103a4600480803573ffffffffffffffffffffffffffffffffffffffff169060200190919050506114d9565b6040518082815260200191505060405180910390f35b34156103c557600080fd5b6103cd611521565b6040518082815260200191505060405180910390f35b34156103ee57600080fd5b6103f6611527565b6040518082815260200191505060405180910390f35b341561041757600080fd5b61041f61152d565b6040518080602001828103825283818151815260200191508051906020019080838360005b8381101561045f578082015181840152602081019050610444565b50505050905090810190601f16801561048c5780820380516001836020036101000a031916815260200191505b509250505060405180910390f35b34156104a557600080fd5b6104da600480803573ffffffffffffffffffffffffffffffffffffffff16906020019091908035906020019091905050611566565b604051808215151515815260200191505060405180910390f35b34156104ff57600080fd5b610519600480803560001916906020019091905050611833565b005b341561052657600080fd5b61054060048080356000191690602001909190505061197d565b005b341561054d57600080fd5b610598600480803573ffffffffffffffffffffffffffffffffffffffff1690602001909190803573ffffffffffffffffffffffffffffffffffffffff16906020019091905050611bdf565b6040518082815260200191505060405180910390f35b34156105b957600080fd5b6105cf6004808035906020019091905050611c66565b6040518082815260200191505060405180910390f35b34156105f057600080fd5b6105f8611f54565b6040518082815260200191505060405180910390f35b6040805190810160405280600981526020017f45554c2d546f6b656e000000000000000000000000000000000000000000000081525081565b600081600160003373ffffffffffffffffffffffffffffffffffffffff1673ffffffffffffffffffffffffffffffffffffffff16815260200190815260200160002060008573ffffffffffffffffffffffffffffffffffffffff1673ffffffffffffffffffffffffffffffffffffffff168152602001908152602001600020819055508273ffffffffffffffffffffffffffffffffffffffff163373ffffffffffffffffffffffffffffffffffffffff167f8c5be1e5ebec7d5bd14f71427d1e84f3dd0314c0f7b2291e5b200ac8c7c3b925846040518082815260200191505060405180910390a36001905092915050565b600e5481565b6000600254905090565b60008060008573ffffffffffffffffffffffffffffffffffffffff1673ffffffffffffffffffffffffffffffffffffffff1681526020019081526020016000205473__Math__________________________________63e31c71c49091846000604051602001526040518363ffffffff167c0100000000000000000000000000000000000000000000000000000000028152600401808381526020018281526020019250505060206040518083038186803b151561080657600080fd5b6102c65a03f4151561081757600080fd5b50505060405180519050158061093e5750600160008573ffffffffffffffffffffffffffffffffffffffff1673ffffffffffffffffffffffffffffffffffffffff16815260200190815260200160002060003373ffffffffffffffffffffffffffffffffffffffff1673ffffffffffffffffffffffffffffffffffffffff1681526020019081526020016000205473__Math__________________________________63e31c71c49091846000604051602001526040518363ffffffff167c0100000000000000000000000000000000000000000000000000000000028152600401808381526020018281526020019250505060206040518083038186803b151561092157600080fd5b6102c65a03f4151561093257600080fd5b50505060405180519050155b80610a1c57506000808473ffffffffffffffffffffffffffffffffffffffff1673ffffffffffffffffffffffffffffffffffffffff1681526020019081526020016000205473__Math__________________________________634e30a66c9091846000604051602001526040518363ffffffff167c0100000000000000000000000000000000000000000000000000000000028152600401808381526020018281526020019250505060206040518083038186803b15156109ff57600080fd5b6102c65a03f41515610a1057600080fd5b50505060405180519050155b15610a2a5760009050610bb6565b816000808673ffffffffffffffffffffffffffffffffffffffff1673ffffffffffffffffffffffffffffffffffffffff1681526020019081526020016000206000828254039250508190555081600160008673ffffffffffffffffffffffffffffffffffffffff1673ffffffffffffffffffffffffffffffffffffffff16815260200190815260200160002060003373ffffffffffffffffffffffffffffffffffffffff1673ffffffffffffffffffffffffffffffffffffffff16815260200190815260200160002060008282540392505081905550816000808573ffffffffffffffffffffffffffffffffffffffff1673ffffffffffffffffffffffffffffffffffffffff168152602001908152602001600020600082825401925050819055508273ffffffffffffffffffffffffffffffffffffffff168473ffffffffffffffffffffffffffffffffffffffff167fddf252ad1be2c89b69c2b068fc378daa952ba7f163c4a11628f55a4df523b3ef846040518082815260200191505060405180910390a3600190505b9392505050565b6000808484846040518084815260200183815260200182815260200193505050506040518091039020915060006006600084600019166000191681526020019081526020016000206003015414151515610c1657600080fd5b600360009054906101000a900473ffffffffffffffffffffffffffffffffffffffff1673ffffffffffffffffffffffffffffffffffffffff166323b872dd3330886000604051602001526040518463ffffffff167c0100000000000000000000000000000000000000000000000000000000028152600401808473ffffffffffffffffffffffffffffffffffffffff1673ffffffffffffffffffffffffffffffffffffffff1681526020018373ffffffffffffffffffffffffffffffffffffffff1673ffffffffffffffffffffffffffffffffffffffff1681526020018281526020019350505050602060405180830381600087803b1515610d1757600080fd5b6102c65a03f11515610d2857600080fd5b505050604051805190501515610d3d57600080fd5b60006009541115610d5d5784600960008282540392505081905550610d66565b60006009819055505b84600860008282540192505081905550610d7f85611f5a565b90506003601e8202811515610d9057fe5b046000803373ffffffffffffffffffffffffffffffffffffffff1673ffffffffffffffffffffffffffffffffffffffff1681526020019081526020016000206000828254019250508190555060e0604051908101604052803373ffffffffffffffffffffffffffffffffffffffff168152602001858152602001868152602001624f1a0042811515610e1e57fe5b0642038152602001848152602001600360028402811515610e3b57fe5b048152602001624f1a0042811515610e4f57fe5b06420381525060066000846000191660001916815260200190815260200160002060008201518160000160006101000a81548173ffffffffffffffffffffffffffffffffffffffff021916908373ffffffffffffffffffffffffffffffffffffffff1602179055506020820151816001015560408201518160020155606082015181600301556080820151816004015560a0820151816005015560c082015181600601559050505050505050565b601281565b6000600360009054906101000a900473ffffffffffffffffffffffffffffffffffffffff1673ffffffffffffffffffffffffffffffffffffffff166323b872dd3330856000604051602001526040518463ffffffff167c0100000000000000000000000000000000000000000000000000000000028152600401808473ffffffffffffffffffffffffffffffffffffffff1673ffffffffffffffffffffffffffffffffffffffff1681526020018373ffffffffffffffffffffffffffffffffffffffff1673ffffffffffffffffffffffffffffffffffffffff1681526020018281526020019350505050602060405180830381600087803b151561100557600080fd5b6102c65a03f1151561101657600080fd5b50505060405180519050151561102b57600080fd5b600560009054906101000a900473ffffffffffffffffffffffffffffffffffffffff1673ffffffffffffffffffffffffffffffffffffffff1663a3ca17b26000604051602001526040518163ffffffff167c0100000000000000000000000000000000000000000000000000000000028152600401602060405180830381600087803b15156110b957600080fd5b6102c65a03f115156110ca57600080fd5b50505060405180519050600560009054906101000a900473ffffffffffffffffffffffffffffffffffffffff1673ffffffffffffffffffffffffffffffffffffffff166397cecb25600360009054906101000a900473ffffffffffffffffffffffffffffffffffffffff166000604051602001526040518263ffffffff167c0100000000000000000000000000000000000000000000000000000000028152600401808273ffffffffffffffffffffffffffffffffffffffff1673ffffffffffffffffffffffffffffffffffffffff168152602001915050602060405180830381600087803b15156111bb57600080fd5b6102c65a03f115156111cc57600080fd5b505050604051805190508302029050600f54601e624f1a00428115156111ee57fe5b048115156111f857fe5b06141561123f5780600d6000601e624f1a004281151561121457fe5b0481151561121e57fe5b06815260200190815260200160002060008282540192505081905550611310565b600d6000601e6001624f1a004281151561125557fe5b040381151561126057fe5b06815260200190815260200160002054600e60008282540192505081905550600d6000601e624f1a004281151561129357fe5b0481151561129d57fe5b06815260200190815260200160002054600e6000828254039250508190555080600d6000601e624f1a00428115156112d157fe5b048115156112db57fe5b06815260200190815260200160002081905550601e624f1a00428115156112fe57fe5b0481151561130857fe5b06600f819055505b5050565b3373ffffffffffffffffffffffffffffffffffffffff1660066000836000191660001916815260200190815260200160002060000160009054906101000a900473ffffffffffffffffffffffffffffffffffffffff1673ffffffffffffffffffffffffffffffffffffffff1614151561138c57600080fd5b426006600083600019166000191681526020019081526020016000206004015460066000846000191660001916815260200190815260200160002060030154011115156113d857600080fd5b6113e181611833565b61140860066000836000191660001916815260200190815260200160002060020154611f5a565b600660008360001916600019168152602001908152602001600020600501819055506003601e600660008460001916600019168152602001908152602001600020600501540281151561145757fe5b046000803373ffffffffffffffffffffffffffffffffffffffff1673ffffffffffffffffffffffffffffffffffffffff16815260200190815260200160002060008282540192505081905550624f1a00428115156114b157fe5b0642036006600083600019166000191681526020019081526020016000206003018190555050565b60008060008373ffffffffffffffffffffffffffffffffffffffff1673ffffffffffffffffffffffffffffffffffffffff168152602001908152602001600020549050919050565b60085481565b60095481565b6040805190810160405280600381526020017f45554c000000000000000000000000000000000000000000000000000000000081525081565b60008060003373ffffffffffffffffffffffffffffffffffffffff1673ffffffffffffffffffffffffffffffffffffffff1681526020019081526020016000205473__Math__________________________________63e31c71c49091846000604051602001526040518363ffffffff167c0100000000000000000000000000000000000000000000000000000000028152600401808381526020018281526020019250505060206040518083038186803b151561162357600080fd5b6102c65a03f4151561163457600080fd5b50505060405180519050158061171d57506000808473ffffffffffffffffffffffffffffffffffffffff1673ffffffffffffffffffffffffffffffffffffffff1681526020019081526020016000205473__Math__________________________________634e30a66c9091846000604051602001526040518363ffffffff167c0100000000000000000000000000000000000000000000000000000000028152600401808381526020018281526020019250505060206040518083038186803b151561170057600080fd5b6102c65a03f4151561171157600080fd5b50505060405180519050155b1561172b576000905061182d565b816000803373ffffffffffffffffffffffffffffffffffffffff1673ffffffffffffffffffffffffffffffffffffffff16815260200190815260200160002060008282540392505081905550816000808573ffffffffffffffffffffffffffffffffffffffff1673ffffffffffffffffffffffffffffffffffffffff168152602001908152602001600020600082825401925050819055508273ffffffffffffffffffffffffffffffffffffffff163373ffffffffffffffffffffffffffffffffffffffff167fddf252ad1be2c89b69c2b068fc378daa952ba7f163c4a11628f55a4df523b3ef846040518082815260200191505060405180910390a3600190505b92915050565b60066000826000191660001916815260200190815260200160002060000160009054906101000a900473ffffffffffffffffffffffffffffffffffffffff1673ffffffffffffffffffffffffffffffffffffffff163373ffffffffffffffffffffffffffffffffffffffff161415156118ab57600080fd5b60066000826000191660001916815260200190815260200160002060050154624f1a006006600084600019166000191681526020019081526020016000206006015442038115156118f857fe5b04026000803373ffffffffffffffffffffffffffffffffffffffff1673ffffffffffffffffffffffffffffffffffffffff16815260200190815260200160002060008282540192505081905550624f1a00804281151561195457fe5b064203016006600083600019166000191681526020019081526020016000206006018190555050565b60003373ffffffffffffffffffffffffffffffffffffffff1660066000846000191660001916815260200190815260200160002060000160009054906101000a900473ffffffffffffffffffffffffffffffffffffffff1673ffffffffffffffffffffffffffffffffffffffff161415156119f757600080fd5b42600660008460001916600019168152602001908152602001600020600401546006600085600019166000191681526020019081526020016000206003015401111515611a4357600080fd5b611a4c82611833565b60066000836000191660001916815260200190815260200160002060020154905080600860008282540392505081905550600660008360001916600019168152602001908152602001600020600080820160006101000a81549073ffffffffffffffffffffffffffffffffffffffff02191690556001820160009055600282016000905560038201600090556004820160009055600582016000905560068201600090555050600360009054906101000a900473ffffffffffffffffffffffffffffffffffffffff1673ffffffffffffffffffffffffffffffffffffffff1663a9059cbb33836000604051602001526040518363ffffffff167c0100000000000000000000000000000000000000000000000000000000028152600401808373ffffffffffffffffffffffffffffffffffffffff1673ffffffffffffffffffffffffffffffffffffffff16815260200182815260200192505050602060405180830381600087803b1515611bbf57600080fd5b6102c65a03f11515611bd057600080fd5b50505060405180519050505050565b6000600160008473ffffffffffffffffffffffffffffffffffffffff1673ffffffffffffffffffffffffffffffffffffffff16815260200190815260200160002060008373ffffffffffffffffffffffffffffffffffffffff1673ffffffffffffffffffffffffffffffffffffffff16815260200190815260200160002054905092915050565b60008073__Math__________________________________637ae2b5c7600160003373ffffffffffffffffffffffffffffffffffffffff1673ffffffffffffffffffffffffffffffffffffffff16815260200190815260200160002060003073ffffffffffffffffffffffffffffffffffffffff1673ffffffffffffffffffffffffffffffffffffffff16815260200190815260200160002054856000604051602001526040518363ffffffff167c0100000000000000000000000000000000000000000000000000000000028152600401808381526020018281526020019250505060206040518083038186803b1515611d6057600080fd5b6102c65a03f41515611d7157600080fd5b505050604051805190509050806000803373ffffffffffffffffffffffffffffffffffffffff1673ffffffffffffffffffffffffffffffffffffffff1681526020019081526020016000205410151515611dca57600080fd5b806000803373ffffffffffffffffffffffffffffffffffffffff1673ffffffffffffffffffffffffffffffffffffffff16815260200190815260200160002060008282540392505081905550600c54601e624f1a0042811515611e2957fe5b04811515611e3357fe5b061415611e7a5780600a6000601e624f1a0042811515611e4f57fe5b04811515611e5957fe5b06815260200190815260200160002060008282540192505081905550611f4b565b600a6000601e6001624f1a0042811515611e9057fe5b0403811515611e9b57fe5b06815260200190815260200160002054600b60008282540192505081905550600a6000601e624f1a0042811515611ece57fe5b04811515611ed857fe5b06815260200190815260200160002054600b6000828254039250508190555080600a6000601e624f1a0042811515611f0c57fe5b04811515611f1657fe5b06815260200190815260200160002081905550601e624f1a0042811515611f3957fe5b04811515611f4357fe5b06600c819055505b80915050919050565b600b5481565b600080600090506009600e5402600b541015611f9657601e611f7a61073f565b6014600e54600b54010203811515611f8e57fe5b049050612002565b600e54600b541015611fdc57601e611fac61073f565b600b54600e5460096014600e54600b5401020202811515611fc957fe5b0403811515611fd457fe5b049050612001565b601e611fe661073f565b60096014600e54600b5401020203811515611ffd57fe5b0490505b5b82600854600954010183820281151561201757fe5b049150509190505600a165627a7a723058206c441fee86e49619f0adbb5f4fc4796b2693c5df0359f1da5157bf7b07b8cb2100296060604052341561000f57600080fd5b60405160208061016183398101604052808051906020019091905050806000806101000a81548173ffffffffffffffffffffffffffffffffffffffff021916908373ffffffffffffffffffffffffffffffffffffffff1602179055505060e78061007a6000396000f300606060405260043610603f576000357c0100000000000000000000000000000000000000000000000000000000900463ffffffff168063c1285d19146044575b600080fd5b3415604e57600080fd5b60546096565b604051808273ffffffffffffffffffffffffffffffffffffffff1673ffffffffffffffffffffffffffffffffffffffff16815260200191505060405180910390f35b6000809054906101000a900473ffffffffffffffffffffffffffffffffffffffff16815600a165627a7a7230582032645bdf1c7d1f308bcbf2ee27da48eba07d1619aa712fee302841d4aff4a5d80029",
  "source": "pragma solidity ^0.4.16;\n\nimport \"./Tokens/StandardToken.sol\";\nimport \"./Utils/Math.sol\";\nimport \"./FeeDutchAuction.sol\";\nimport \"./OracleContract.sol\";\n\ncontract EUL is StandardToken{\n  using Math for *;\n\n  string public constant name = \"EUL-Token\";\n  string public constant symbol = \"EUL\";\n  uint8 public constant decimals = 18;  // 18 is the most common number of decimal places\n\n  address GNOTokenAddress;\n  address FeeDutchAuctionAddress;\n  address oracleContract;\n\n  struct GNOLocker {\n    address sender;\n    uint nonce;\n    uint GNOLocked;\n    uint TimeOfLocking;\n    uint LockingPeriod;\n    uint GNOIssueRate;\n    uint timeOfLastWithdraw;\n  }\n\n  mapping (bytes32=>GNOLocker) LockedGNO;\n  mapping (address=> uint) GNObalances;\n  uint public amountOfGNOLocked;                //tracks the amount of GNO currently locked down. Is used in calcIssueRate\n  uint public amountOfGNOLockedInitially;       //tracks the intial virtual amount of GNO locked down to ensure a smooth issueRate, when first locking is enabled\n\n  //@dev: Constructor of the contract EUL, which sets variables and constructs FeeDutchAuction\n  //@param: _GNOTokenAddress address of the GNO ERC20 tokens\n  //@param: _oracleContract contract where all oracle feeds can be read out\n  function EUL(address _GNOTokenAddress, address _oracleContract) public{\n    GNOTokenAddress=_GNOTokenAddress;\n    oracleContract=_oracleContract;\n    //Tokens credited for Airdrop\n    balances[msg.sender]=Token(GNOTokenAddress).totalSupply();\n    FeeDutchAuctionAddress= new FeeDutchAuction(GNOTokenAddress);\n  }\n  //@dev: Allows GNO holders to lock GNO for EUL\n  //@param: amount of GNOs to be locked\n  //@param: nonce can be used to manage different GNO locks wth the same address\n  //@param: lockingPeriod\n  function lockGNO(uint amount, uint nonce, uint lockingPeriod) public{\n      bytes32 GNOLockHash= keccak256(amount,nonce,lockingPeriod);\n      require(LockedGNO[GNOLockHash].TimeOfLocking!=0);\n      require(Token(GNOTokenAddress).transferFrom(msg.sender, this, amount));\n\n      //adjustment of counter of GNOlocked\n      if(amountOfGNOLockedInitially>0)amountOfGNOLockedInitially-=amount;\n      else amountOfGNOLockedInitially=0;\n      amountOfGNOLocked+=amount;\n\n      uint issueRate=calcIssueRate(amount);\n      //one thrid of Tokens is issued immediatly\n      balances[msg.sender]+=issueRate*30/3;\n      LockedGNO[GNOLockHash]=GNOLocker(\n        msg.sender,\n        nonce,\n        amount,\n        now-now%5184000,  // further EUL issuance is calculated in 5184000 sec[1 day] steps\n        lockingPeriod,\n        issueRate*2/3,now-now%5184000);\n  }\n  //@dev: Allows GNO holders with locked GNO to unlock their GNO\n  //@param: _GNOLockHash of their Locked GNO\n  function unlockGNO(bytes32 _GNOLockHash) public {\n      require(LockedGNO[_GNOLockHash].sender==msg.sender);\n      require(LockedGNO[_GNOLockHash].TimeOfLocking+LockedGNO[_GNOLockHash].LockingPeriod>now);\n      withdrawEUL(_GNOLockHash);\n      uint amount=LockedGNO[_GNOLockHash].GNOLocked;\n      amountOfGNOLocked-=amount;\n      delete LockedGNO[_GNOLockHash];\n      Token(GNOTokenAddress).transfer(msg.sender,amount);\n  }\n  //@dev: Allows GNO holders with locked GNO to withdraw EUL\n  //@param: _GNOLockHash of their Locked GNO\n  function withdrawEUL(bytes32 _GNOLockHash) public{\n    require(msg.sender==LockedGNO[_GNOLockHash].sender);\n    balances[msg.sender]+=(now-LockedGNO[_GNOLockHash].timeOfLastWithdraw)/(5184000)*LockedGNO[_GNOLockHash].GNOIssueRate;\n    LockedGNO[_GNOLockHash].timeOfLastWithdraw=now-now%5184000+5184000;\n  }\n  //@dev: Allows GNO holders with locked GNO to relock their GNOTokens\n  //@param: _GNOLockHash of their Locked GNO\n  //@param: lockingPeriod for the next locking\n  function relockGNO(bytes32 _GNOLockHash)public{\n    require(LockedGNO[_GNOLockHash].sender==msg.sender);\n    require(LockedGNO[_GNOLockHash].TimeOfLocking+LockedGNO[_GNOLockHash].LockingPeriod>now);\n    withdrawEUL(_GNOLockHash);\n    LockedGNO[_GNOLockHash].GNOIssueRate=calcIssueRate(LockedGNO[_GNOLockHash].GNOLocked);\n    balances[msg.sender]+=LockedGNO[_GNOLockHash].GNOIssueRate*30/3;\n    LockedGNO[_GNOLockHash].TimeOfLocking=now-now%5184000;\n  }\n\n  /******Burning functions of EUL and GNO******/\n  // mapping Last30Days <-> BurnedEUL\n  mapping(uint=>uint) burnedEUL;\n  uint public sumOfEULBurndedLast30Days=0;\n  uint lastDayOfBurningDocumentation;\n  // mapping Last30Days <-> BurnedGNOValuedInUSD\n  mapping(uint=>uint) burnedGNOValuedInUSD;\n  uint public sumOfBurnedGNOValuedInUSDInLast30Days;\n  uint lastDayOfBurningDocumentationGNO;\n\n  //@dev: To be called from the Prediction markets and DutchX contracts to burn EUL for paying fees. Depending on the allowance, different amounts will acutally be burned\n  //@param: maxAmount of EUL to be burned\n  //@return: acutal amount of burned EUL\n  function burnEUL(uint maxAmount) public returns (uint){\n    uint amount=Math.min(allowances[msg.sender][this],maxAmount);\n    require(balances[msg.sender]>=amount);\n    balances[msg.sender]-=amount;\n    if((now/(5184000))%(30)==lastDayOfBurningDocumentation){\n      burnedEUL[(now/(5184000))%(30)]+=amount;\n    }\n    else{\n      sumOfEULBurndedLast30Days+=burnedEUL[(now/(5184000)-1)%(30)];\n      sumOfEULBurndedLast30Days-=burnedEUL[(now/(5184000))%(30)];\n      burnedEUL[(now/(5184000))%(30)]=amount;\n      lastDayOfBurningDocumentation=(now/(5184000))%(30);\n    }\n    return amount;\n  }\n\n  //@dev: To be called from the FeeDutchAuction to document the fees collected\n  //@param: amount of EUL to be burned\n  function burnedGNO(uint amount) public{\n    require(Token(GNOTokenAddress).transferFrom(msg.sender, this, amount));\n    uint b=amount*OracleContract(oracleContract).getETHPrice(GNOTokenAddress)*OracleContract(oracleContract).getUSDETHPrice();\n    if((now/(5184000))%(30)==lastDayOfBurningDocumentationGNO){\n        burnedGNOValuedInUSD[(now/(5184000))%(30)]+=b;\n    }\n    else{\n      sumOfBurnedGNOValuedInUSDInLast30Days+=burnedGNOValuedInUSD[(now/(5184000)-1)%(30)];\n      sumOfBurnedGNOValuedInUSDInLast30Days-=burnedGNOValuedInUSD[(now/(5184000))%(30)];\n      burnedGNOValuedInUSD[(now/(5184000))%(30)]=b;\n      lastDayOfBurningDocumentationGNO=(now/(5184000))%(30);\n    }\n  }\n\n/*internal functions */\n//@dev: calculates the issueRate\n  function calcIssueRate(uint amount) view internal \n  returns(uint){\n      uint issueRate=0;\n    if(sumOfEULBurndedLast30Days<sumOfBurnedGNOValuedInUSDInLast30Days*9){\n        issueRate=((sumOfEULBurndedLast30Days+sumOfBurnedGNOValuedInUSDInLast30Days)*20-totalSupply())/30;\n    }\n    else if(sumOfEULBurndedLast30Days<sumOfBurnedGNOValuedInUSDInLast30Days){\n      issueRate=((sumOfEULBurndedLast30Days+sumOfBurnedGNOValuedInUSDInLast30Days)*20*9*sumOfBurnedGNOValuedInUSDInLast30Days/sumOfEULBurndedLast30Days-totalSupply())/30;\n    }\n    else{\n      issueRate=((sumOfEULBurndedLast30Days+sumOfBurnedGNOValuedInUSDInLast30Days)*20*9-totalSupply())/30;\n    }\n    return issueRate*amount/(amountOfGNOLockedInitially+amountOfGNOLocked+amount);\n  }\n\n}\n",
  "sourcePath": "/home/josojo/gnosis/WIZ-GNO/contracts/EUL.sol",
  "compiler": {
    "name": "solc",
    "version": "0.4.18+commit.9cf6e910.Emscripten.clang"
  },
  "schemaVersion": "1.0.1",
  "updatedAt": "2017-12-04T06:54:41.323Z"
}