{
  "contractName": "EUL",
  "abi": [
    {
      "constant": true,
      "inputs": [],
      "name": "name",
      "outputs": [
        {
          "name": "",
          "type": "string"
        }
      ],
      "payable": false,
      "stateMutability": "view",
      "type": "function"
    },
    {
      "constant": false,
      "inputs": [
        {
          "name": "spender",
          "type": "address"
        },
        {
          "name": "value",
          "type": "uint256"
        }
      ],
      "name": "approve",
      "outputs": [
        {
          "name": "",
          "type": "bool"
        }
      ],
      "payable": false,
      "stateMutability": "nonpayable",
      "type": "function"
    },
    {
      "constant": true,
      "inputs": [],
      "name": "sumOfBurnedGNOValuedInUSDInLast30Days",
      "outputs": [
        {
          "name": "",
          "type": "uint256"
        }
      ],
      "payable": false,
      "stateMutability": "view",
      "type": "function"
    },
    {
      "constant": true,
      "inputs": [],
      "name": "totalSupply",
      "outputs": [
        {
          "name": "",
          "type": "uint256"
        }
      ],
      "payable": false,
      "stateMutability": "view",
      "type": "function"
    },
    {
      "constant": false,
      "inputs": [
        {
          "name": "from",
          "type": "address"
        },
        {
          "name": "to",
          "type": "address"
        },
        {
          "name": "value",
          "type": "uint256"
        }
      ],
      "name": "transferFrom",
      "outputs": [
        {
          "name": "",
          "type": "bool"
        }
      ],
      "payable": false,
      "stateMutability": "nonpayable",
      "type": "function"
    },
    {
      "constant": false,
      "inputs": [
        {
          "name": "amount",
          "type": "uint256"
        },
        {
          "name": "nonce",
          "type": "uint256"
        },
        {
          "name": "lockingPeriod",
          "type": "uint256"
        }
      ],
      "name": "lockGNO",
      "outputs": [],
      "payable": false,
      "stateMutability": "nonpayable",
      "type": "function"
    },
    {
      "constant": true,
      "inputs": [],
      "name": "decimals",
      "outputs": [
        {
          "name": "",
          "type": "uint8"
        }
      ],
      "payable": false,
      "stateMutability": "view",
      "type": "function"
    },
    {
      "constant": false,
      "inputs": [
        {
          "name": "amount",
          "type": "uint256"
        }
      ],
      "name": "burnedGNO",
      "outputs": [],
      "payable": false,
      "stateMutability": "nonpayable",
      "type": "function"
    },
    {
      "constant": false,
      "inputs": [
        {
          "name": "_GNOLockHash",
          "type": "bytes32"
        }
      ],
      "name": "relockGNO",
      "outputs": [],
      "payable": false,
      "stateMutability": "nonpayable",
      "type": "function"
    },
    {
      "constant": true,
      "inputs": [
        {
          "name": "owner",
          "type": "address"
        }
      ],
      "name": "balanceOf",
      "outputs": [
        {
          "name": "",
          "type": "uint256"
        }
      ],
      "payable": false,
      "stateMutability": "view",
      "type": "function"
    },
    {
      "constant": true,
      "inputs": [],
      "name": "symbol",
      "outputs": [
        {
          "name": "",
          "type": "string"
        }
      ],
      "payable": false,
      "stateMutability": "view",
      "type": "function"
    },
    {
      "constant": false,
      "inputs": [
        {
          "name": "to",
          "type": "address"
        },
        {
          "name": "value",
          "type": "uint256"
        }
      ],
      "name": "transfer",
      "outputs": [
        {
          "name": "",
          "type": "bool"
        }
      ],
      "payable": false,
      "stateMutability": "nonpayable",
      "type": "function"
    },
    {
      "constant": false,
      "inputs": [
        {
          "name": "_GNOLockHash",
          "type": "bytes32"
        }
      ],
      "name": "withdrawEUL",
      "outputs": [],
      "payable": false,
      "stateMutability": "nonpayable",
      "type": "function"
    },
    {
      "constant": false,
      "inputs": [
        {
          "name": "_GNOLockHash",
          "type": "bytes32"
        }
      ],
      "name": "unlockGNO",
      "outputs": [],
      "payable": false,
      "stateMutability": "nonpayable",
      "type": "function"
    },
    {
      "constant": true,
      "inputs": [
        {
          "name": "owner",
          "type": "address"
        },
        {
          "name": "spender",
          "type": "address"
        }
      ],
      "name": "allowance",
      "outputs": [
        {
          "name": "",
          "type": "uint256"
        }
      ],
      "payable": false,
      "stateMutability": "view",
      "type": "function"
    },
    {
      "constant": false,
      "inputs": [
        {
          "name": "amount",
          "type": "uint256"
        }
      ],
      "name": "burnEUL",
      "outputs": [],
      "payable": false,
      "stateMutability": "nonpayable",
      "type": "function"
    },
    {
      "constant": true,
      "inputs": [],
      "name": "sumOfEULBurndedLast30Days",
      "outputs": [
        {
          "name": "",
          "type": "uint256"
        }
      ],
      "payable": false,
      "stateMutability": "view",
      "type": "function"
    },
    {
      "inputs": [
        {
          "name": "_GNOTokenAddress",
          "type": "address"
        },
        {
          "name": "_oracleContract",
          "type": "address"
        }
      ],
      "payable": false,
      "stateMutability": "nonpayable",
      "type": "constructor"
    },
    {
      "anonymous": false,
      "inputs": [
        {
          "indexed": true,
          "name": "from",
          "type": "address"
        },
        {
          "indexed": true,
          "name": "to",
          "type": "address"
        },
        {
          "indexed": false,
          "name": "value",
          "type": "uint256"
        }
      ],
      "name": "Transfer",
      "type": "event"
    },
    {
      "anonymous": false,
      "inputs": [
        {
          "indexed": true,
          "name": "owner",
          "type": "address"
        },
        {
          "indexed": true,
          "name": "spender",
          "type": "address"
        },
        {
          "indexed": false,
          "name": "value",
          "type": "uint256"
        }
      ],
      "name": "Approval",
      "type": "event"
    }
  ],
  "bytecode": "0x6060604052600060095534156200001557600080fd5b604051604080620021eb8339810160405280805190602001909190805190602001909190505081600360006101000a81548173ffffffffffffffffffffffffffffffffffffffff021916908373ffffffffffffffffffffffffffffffffffffffff16021790555080600560006101000a81548173ffffffffffffffffffffffffffffffffffffffff021916908373ffffffffffffffffffffffffffffffffffffffff160217905550600360009054906101000a900473ffffffffffffffffffffffffffffffffffffffff1673ffffffffffffffffffffffffffffffffffffffff166318160ddd6000604051602001526040518163ffffffff167c0100000000000000000000000000000000000000000000000000000000028152600401602060405180830381600087803b15156200014c57600080fd5b6102c65a03f115156200015e57600080fd5b505050604051805190506000803373ffffffffffffffffffffffffffffffffffffffff1673ffffffffffffffffffffffffffffffffffffffff16815260200190815260200160002081905550600360009054906101000a900473ffffffffffffffffffffffffffffffffffffffff16620001d76200026c565b808273ffffffffffffffffffffffffffffffffffffffff1673ffffffffffffffffffffffffffffffffffffffff168152602001915050604051809103906000f08015156200022457600080fd5b600460006101000a81548173ffffffffffffffffffffffffffffffffffffffff021916908373ffffffffffffffffffffffffffffffffffffffff16021790555050506200027d565b604051610161806200208a83390190565b611dfd806200028d6000396000f3006060604052600436106100f1576000357c0100000000000000000000000000000000000000000000000000000000900463ffffffff16806306fdde03146100f6578063095ea7b3146101845780630f952424146101de57806318160ddd1461020757806323b872dd146102305780632fc59d95146102a9578063313ce567146102de5780634e1700ea1461030d5780634f90b92d1461033057806370a082311461035757806395d89b41146103a4578063a9059cbb14610432578063c2888f651461048c578063d6f4af30146104b3578063dd62ed3e146104da578063ec08fb2b14610546578063fb8b16be14610569575b600080fd5b341561010157600080fd5b610109610592565b6040518080602001828103825283818151815260200191508051906020019080838360005b8381101561014957808201518184015260208101905061012e565b50505050905090810190601f1680156101765780820380516001836020036101000a031916815260200191505b509250505060405180910390f35b341561018f57600080fd5b6101c4600480803573ffffffffffffffffffffffffffffffffffffffff169060200190919080359060200190919050506105cb565b604051808215151515815260200191505060405180910390f35b34156101e957600080fd5b6101f16106bd565b6040518082815260200191505060405180910390f35b341561021257600080fd5b61021a6106c3565b6040518082815260200191505060405180910390f35b341561023b57600080fd5b61028f600480803573ffffffffffffffffffffffffffffffffffffffff1690602001909190803573ffffffffffffffffffffffffffffffffffffffff169060200190919080359060200190919050506106cd565b604051808215151515815260200191505060405180910390f35b34156102b457600080fd5b6102dc6004808035906020019091908035906020019091908035906020019091905050610b41565b005b34156102e957600080fd5b6102f1610e47565b604051808260ff1660ff16815260200191505060405180910390f35b341561031857600080fd5b61032e6004808035906020019091905050610e4c565b005b341561033b57600080fd5b61035560048080356000191690602001909190505061125e565b005b341561036257600080fd5b61038e600480803573ffffffffffffffffffffffffffffffffffffffff169060200190919050506113da565b6040518082815260200191505060405180910390f35b34156103af57600080fd5b6103b7611422565b6040518080602001828103825283818151815260200191508051906020019080838360005b838110156103f75780820151818401526020810190506103dc565b50505050905090810190601f1680156104245780820380516001836020036101000a031916815260200191505b509250505060405180910390f35b341561043d57600080fd5b610472600480803573ffffffffffffffffffffffffffffffffffffffff1690602001909190803590602001909190505061145b565b604051808215151515815260200191505060405180910390f35b341561049757600080fd5b6104b1600480803560001916906020019091905050611728565b005b34156104be57600080fd5b6104d8600480803560001916906020019091905050611872565b005b34156104e557600080fd5b610530600480803573ffffffffffffffffffffffffffffffffffffffff1690602001909190803573ffffffffffffffffffffffffffffffffffffffff16906020019091905050611ac4565b6040518082815260200191505060405180910390f35b341561055157600080fd5b6105676004808035906020019091905050611b4b565b005b341561057457600080fd5b61057c611d1c565b6040518082815260200191505060405180910390f35b6040805190810160405280600981526020017f45554c2d546f6b656e000000000000000000000000000000000000000000000081525081565b600081600160003373ffffffffffffffffffffffffffffffffffffffff1673ffffffffffffffffffffffffffffffffffffffff16815260200190815260200160002060008573ffffffffffffffffffffffffffffffffffffffff1673ffffffffffffffffffffffffffffffffffffffff168152602001908152602001600020819055508273ffffffffffffffffffffffffffffffffffffffff163373ffffffffffffffffffffffffffffffffffffffff167f8c5be1e5ebec7d5bd14f71427d1e84f3dd0314c0f7b2291e5b200ac8c7c3b925846040518082815260200191505060405180910390a36001905092915050565b600c5481565b6000600254905090565b60008060008573ffffffffffffffffffffffffffffffffffffffff1673ffffffffffffffffffffffffffffffffffffffff1681526020019081526020016000205473__Math__________________________________63e31c71c49091846000604051602001526040518363ffffffff167c0100000000000000000000000000000000000000000000000000000000028152600401808381526020018281526020019250505060206040518083038186803b151561078a57600080fd5b6102c65a03f4151561079b57600080fd5b5050506040518051905015806108c25750600160008573ffffffffffffffffffffffffffffffffffffffff1673ffffffffffffffffffffffffffffffffffffffff16815260200190815260200160002060003373ffffffffffffffffffffffffffffffffffffffff1673ffffffffffffffffffffffffffffffffffffffff1681526020019081526020016000205473__Math__________________________________63e31c71c49091846000604051602001526040518363ffffffff167c0100000000000000000000000000000000000000000000000000000000028152600401808381526020018281526020019250505060206040518083038186803b15156108a557600080fd5b6102c65a03f415156108b657600080fd5b50505060405180519050155b806109a057506000808473ffffffffffffffffffffffffffffffffffffffff1673ffffffffffffffffffffffffffffffffffffffff1681526020019081526020016000205473__Math__________________________________634e30a66c9091846000604051602001526040518363ffffffff167c0100000000000000000000000000000000000000000000000000000000028152600401808381526020018281526020019250505060206040518083038186803b151561098357600080fd5b6102c65a03f4151561099457600080fd5b50505060405180519050155b156109ae5760009050610b3a565b816000808673ffffffffffffffffffffffffffffffffffffffff1673ffffffffffffffffffffffffffffffffffffffff1681526020019081526020016000206000828254039250508190555081600160008673ffffffffffffffffffffffffffffffffffffffff1673ffffffffffffffffffffffffffffffffffffffff16815260200190815260200160002060003373ffffffffffffffffffffffffffffffffffffffff1673ffffffffffffffffffffffffffffffffffffffff16815260200190815260200160002060008282540392505081905550816000808573ffffffffffffffffffffffffffffffffffffffff1673ffffffffffffffffffffffffffffffffffffffff168152602001908152602001600020600082825401925050819055508273ffffffffffffffffffffffffffffffffffffffff168473ffffffffffffffffffffffffffffffffffffffff167fddf252ad1be2c89b69c2b068fc378daa952ba7f163c4a11628f55a4df523b3ef846040518082815260200191505060405180910390a3600190505b9392505050565b6000808484846040518084815260200183815260200182815260200193505050506040518091039020915060006006600084600019166000191681526020019081526020016000206003015414151515610b9a57600080fd5b600360009054906101000a900473ffffffffffffffffffffffffffffffffffffffff1673ffffffffffffffffffffffffffffffffffffffff166323b872dd3330886000604051602001526040518463ffffffff167c0100000000000000000000000000000000000000000000000000000000028152600401808473ffffffffffffffffffffffffffffffffffffffff1673ffffffffffffffffffffffffffffffffffffffff1681526020018373ffffffffffffffffffffffffffffffffffffffff1673ffffffffffffffffffffffffffffffffffffffff1681526020018281526020019350505050602060405180830381600087803b1515610c9b57600080fd5b6102c65a03f11515610cac57600080fd5b505050604051805190501515610cc157600080fd5b610cc9611d22565b90506003601e8202811515610cda57fe5b046000803373ffffffffffffffffffffffffffffffffffffffff1673ffffffffffffffffffffffffffffffffffffffff1681526020019081526020016000206000828254019250508190555060e0604051908101604052803373ffffffffffffffffffffffffffffffffffffffff168152602001858152602001868152602001624f1a0042811515610d6857fe5b0642038152602001848152602001600360028402811515610d8557fe5b048152602001624f1a0042811515610d9957fe5b06420381525060066000846000191660001916815260200190815260200160002060008201518160000160006101000a81548173ffffffffffffffffffffffffffffffffffffffff021916908373ffffffffffffffffffffffffffffffffffffffff1602179055506020820151816001015560408201518160020155606082015181600301556080820151816004015560a0820151816005015560c082015181600601559050505050505050565b601281565b6000600360009054906101000a900473ffffffffffffffffffffffffffffffffffffffff1673ffffffffffffffffffffffffffffffffffffffff166323b872dd3330856000604051602001526040518463ffffffff167c0100000000000000000000000000000000000000000000000000000000028152600401808473ffffffffffffffffffffffffffffffffffffffff1673ffffffffffffffffffffffffffffffffffffffff1681526020018373ffffffffffffffffffffffffffffffffffffffff1673ffffffffffffffffffffffffffffffffffffffff1681526020018281526020019350505050602060405180830381600087803b1515610f4f57600080fd5b6102c65a03f11515610f6057600080fd5b505050604051805190501515610f7557600080fd5b600560009054906101000a900473ffffffffffffffffffffffffffffffffffffffff1673ffffffffffffffffffffffffffffffffffffffff1663a3ca17b26000604051602001526040518163ffffffff167c0100000000000000000000000000000000000000000000000000000000028152600401602060405180830381600087803b151561100357600080fd5b6102c65a03f1151561101457600080fd5b50505060405180519050600560009054906101000a900473ffffffffffffffffffffffffffffffffffffffff1673ffffffffffffffffffffffffffffffffffffffff166397cecb25600360009054906101000a900473ffffffffffffffffffffffffffffffffffffffff166000604051602001526040518263ffffffff167c0100000000000000000000000000000000000000000000000000000000028152600401808273ffffffffffffffffffffffffffffffffffffffff1673ffffffffffffffffffffffffffffffffffffffff168152602001915050602060405180830381600087803b151561110557600080fd5b6102c65a03f1151561111657600080fd5b505050604051805190508302029050600d54601e624f1a004281151561113857fe5b0481151561114257fe5b0614156111895780600b6000601e624f1a004281151561115e57fe5b0481151561116857fe5b0681526020019081526020016000206000828254019250508190555061125a565b600b6000601e6001624f1a004281151561119f57fe5b04038115156111aa57fe5b06815260200190815260200160002054600c60008282540192505081905550600b6000601e624f1a00428115156111dd57fe5b048115156111e757fe5b06815260200190815260200160002054600c6000828254039250508190555080600b6000601e624f1a004281151561121b57fe5b0481151561122557fe5b06815260200190815260200160002081905550601e624f1a004281151561124857fe5b0481151561125257fe5b06600d819055505b5050565b3373ffffffffffffffffffffffffffffffffffffffff1660066000836000191660001916815260200190815260200160002060000160009054906101000a900473ffffffffffffffffffffffffffffffffffffffff1673ffffffffffffffffffffffffffffffffffffffff161415156112d657600080fd5b4260066000836000191660001916815260200190815260200160002060040154600660008460001916600019168152602001908152602001600020600301540111151561132257600080fd5b61132b81611728565b6003601e600660008460001916600019168152602001908152602001600020600501540281151561135857fe5b046000803373ffffffffffffffffffffffffffffffffffffffff1673ffffffffffffffffffffffffffffffffffffffff16815260200190815260200160002060008282540192505081905550624f1a00428115156113b257fe5b0642036006600083600019166000191681526020019081526020016000206003018190555050565b60008060008373ffffffffffffffffffffffffffffffffffffffff1673ffffffffffffffffffffffffffffffffffffffff168152602001908152602001600020549050919050565b6040805190810160405280600381526020017f45554c000000000000000000000000000000000000000000000000000000000081525081565b60008060003373ffffffffffffffffffffffffffffffffffffffff1673ffffffffffffffffffffffffffffffffffffffff1681526020019081526020016000205473__Math__________________________________63e31c71c49091846000604051602001526040518363ffffffff167c0100000000000000000000000000000000000000000000000000000000028152600401808381526020018281526020019250505060206040518083038186803b151561151857600080fd5b6102c65a03f4151561152957600080fd5b50505060405180519050158061161257506000808473ffffffffffffffffffffffffffffffffffffffff1673ffffffffffffffffffffffffffffffffffffffff1681526020019081526020016000205473__Math__________________________________634e30a66c9091846000604051602001526040518363ffffffff167c0100000000000000000000000000000000000000000000000000000000028152600401808381526020018281526020019250505060206040518083038186803b15156115f557600080fd5b6102c65a03f4151561160657600080fd5b50505060405180519050155b156116205760009050611722565b816000803373ffffffffffffffffffffffffffffffffffffffff1673ffffffffffffffffffffffffffffffffffffffff16815260200190815260200160002060008282540392505081905550816000808573ffffffffffffffffffffffffffffffffffffffff1673ffffffffffffffffffffffffffffffffffffffff168152602001908152602001600020600082825401925050819055508273ffffffffffffffffffffffffffffffffffffffff163373ffffffffffffffffffffffffffffffffffffffff167fddf252ad1be2c89b69c2b068fc378daa952ba7f163c4a11628f55a4df523b3ef846040518082815260200191505060405180910390a3600190505b92915050565b60066000826000191660001916815260200190815260200160002060000160009054906101000a900473ffffffffffffffffffffffffffffffffffffffff1673ffffffffffffffffffffffffffffffffffffffff163373ffffffffffffffffffffffffffffffffffffffff161415156117a057600080fd5b60066000826000191660001916815260200190815260200160002060050154624f1a006006600084600019166000191681526020019081526020016000206006015442038115156117ed57fe5b04026000803373ffffffffffffffffffffffffffffffffffffffff1673ffffffffffffffffffffffffffffffffffffffff16815260200190815260200160002060008282540192505081905550624f1a00804281151561184957fe5b064203016006600083600019166000191681526020019081526020016000206006018190555050565b60003373ffffffffffffffffffffffffffffffffffffffff1660066000846000191660001916815260200190815260200160002060000160009054906101000a900473ffffffffffffffffffffffffffffffffffffffff1673ffffffffffffffffffffffffffffffffffffffff161415156118ec57600080fd5b4260066000846000191660001916815260200190815260200160002060040154600660008560001916600019168152602001908152602001600020600301540111151561193857600080fd5b61194182611728565b600660008360001916600019168152602001908152602001600020600201549050600660008360001916600019168152602001908152602001600020600080820160006101000a81549073ffffffffffffffffffffffffffffffffffffffff02191690556001820160009055600282016000905560038201600090556004820160009055600582016000905560068201600090555050600360009054906101000a900473ffffffffffffffffffffffffffffffffffffffff1673ffffffffffffffffffffffffffffffffffffffff1663a9059cbb33836000604051602001526040518363ffffffff167c0100000000000000000000000000000000000000000000000000000000028152600401808373ffffffffffffffffffffffffffffffffffffffff1673ffffffffffffffffffffffffffffffffffffffff16815260200182815260200192505050602060405180830381600087803b1515611aa457600080fd5b6102c65a03f11515611ab557600080fd5b50505060405180519050505050565b6000600160008473ffffffffffffffffffffffffffffffffffffffff1673ffffffffffffffffffffffffffffffffffffffff16815260200190815260200160002060008373ffffffffffffffffffffffffffffffffffffffff1673ffffffffffffffffffffffffffffffffffffffff16815260200190815260200160002054905092915050565b806000803373ffffffffffffffffffffffffffffffffffffffff1673ffffffffffffffffffffffffffffffffffffffff1681526020019081526020016000205410151515611b9857600080fd5b806000803373ffffffffffffffffffffffffffffffffffffffff1673ffffffffffffffffffffffffffffffffffffffff16815260200190815260200160002060008282540392505081905550600a54601e624f1a0042811515611bf757fe5b04811515611c0157fe5b061415611c48578060086000601e624f1a0042811515611c1d57fe5b04811515611c2757fe5b06815260200190815260200160002060008282540192505081905550611d19565b60086000601e6001624f1a0042811515611c5e57fe5b0403811515611c6957fe5b0681526020019081526020016000205460096000828254019250508190555060086000601e624f1a0042811515611c9c57fe5b04811515611ca657fe5b068152602001908152602001600020546009600082825403925050819055508060086000601e624f1a0042811515611cda57fe5b04811515611ce457fe5b06815260200190815260200160002081905550601e624f1a0042811515611d0757fe5b04811515611d1157fe5b06600a819055505b50565b60095481565b600080600090506009600c54026009541015611d5e57601e611d426106c3565b6014600c54600954010203811515611d5657fe5b049050611dca565b600c546009541015611da457601e611d746106c3565b600954600c5460096014600c5460095401020202811515611d9157fe5b0403811515611d9c57fe5b049050611dc9565b601e611dae6106c3565b60096014600c5460095401020203811515611dc557fe5b0490505b5b80915050905600a165627a7a72305820d90fc3a9561c5002e103466581648a1b59bea6c59d5f2d9161c3cc8b0c86d9f900296060604052341561000f57600080fd5b60405160208061016183398101604052808051906020019091905050806000806101000a81548173ffffffffffffffffffffffffffffffffffffffff021916908373ffffffffffffffffffffffffffffffffffffffff1602179055505060e78061007a6000396000f300606060405260043610603f576000357c0100000000000000000000000000000000000000000000000000000000900463ffffffff168063c1285d19146044575b600080fd5b3415604e57600080fd5b60546096565b604051808273ffffffffffffffffffffffffffffffffffffffff1673ffffffffffffffffffffffffffffffffffffffff16815260200191505060405180910390f35b6000809054906101000a900473ffffffffffffffffffffffffffffffffffffffff16815600a165627a7a7230582032645bdf1c7d1f308bcbf2ee27da48eba07d1619aa712fee302841d4aff4a5d80029",
  "source": "pragma solidity ^0.4.16;\n\nimport \"./Tokens/StandardToken.sol\";\nimport \"./Utils/Math.sol\";\nimport \"./FeeDutchAuction.sol\";\nimport \"./OracleContract.sol\";\n\ncontract EUL is StandardToken{\n  using Math for *;\n\n  string public constant name = \"EUL-Token\";\n  string public constant symbol = \"EUL\";\n  uint8 public constant decimals = 18;  // 18 is the most common number of decimal places\n\n  address GNOTokenAddress;\n  address FeeDutchAuctionAddress;\n  address oracleContract;\n\n  struct GNOLocker {\n    address sender;\n    uint nonce;\n    uint GNOLocked;\n    uint TimeOfLocking;\n    uint LockingPeriod;\n    uint GNOIssueRate;\n    uint timeOfLastWithdraw;\n  }\n\n  mapping (bytes32=>GNOLocker) LockedGNO;\n  mapping (address=> uint) GNObalances;\n\n  //@dev: Constructor of the contract EUL, which sets variables and constructs FeeDutchAuction\n  //@param: _GNOTokenAddress address of the GNO ERC20 tokens\n  //@param: _oracleContract contract where all oracle feeds can be read out\n  function EUL(address _GNOTokenAddress, address _oracleContract) public{\n    GNOTokenAddress=_GNOTokenAddress;\n    oracleContract=_oracleContract;\n    //Tokens credited for Airdrop\n    balances[msg.sender]=Token(GNOTokenAddress).totalSupply();\n    FeeDutchAuctionAddress= new FeeDutchAuction(GNOTokenAddress);\n  }\n  //@dev: Allows GNO holders to lock GNO for EUL\n  //@param: amount of GNOs to be locked\n  //@param: nonce can be used to manage different GNO locks wth the same address\n  //@param: lockingPeriod\n  function lockGNO(uint amount, uint nonce, uint lockingPeriod) public{\n      bytes32 GNOLockHash= keccak256(amount,nonce,lockingPeriod);\n      require(LockedGNO[GNOLockHash].TimeOfLocking!=0);\n      require(Token(GNOTokenAddress).transferFrom(msg.sender, this, amount));\n\n      uint issueRate=calcIssueRate();\n      balances[msg.sender]+=issueRate*30/3;\n      LockedGNO[GNOLockHash]=GNOLocker(\n        msg.sender,\n        nonce,\n        amount,\n        now-now%5184000,\n        lockingPeriod,\n        issueRate*2/3,now-now%5184000);\n  }\n  //@dev: Allows GNO holders with locked GNO to unlock their GNO\n  //@param: _GNOLockHash of their Locked GNO\n  function unlockGNO(bytes32 _GNOLockHash) public {\n      require(LockedGNO[_GNOLockHash].sender==msg.sender);\n      require(LockedGNO[_GNOLockHash].TimeOfLocking+LockedGNO[_GNOLockHash].LockingPeriod>now);\n      withdrawEUL(_GNOLockHash);\n      uint amount=LockedGNO[_GNOLockHash].GNOLocked;\n      delete LockedGNO[_GNOLockHash];\n      Token(GNOTokenAddress).transfer(msg.sender,amount);\n  }\n  //@dev: Allows GNO holders with locked GNO to withdraw EUL\n  //@param: _GNOLockHash of their Locked GNO\n  function withdrawEUL(bytes32 _GNOLockHash) public{\n    require(msg.sender==LockedGNO[_GNOLockHash].sender);\n    balances[msg.sender]+=(now-LockedGNO[_GNOLockHash].timeOfLastWithdraw)/(5184000)*LockedGNO[_GNOLockHash].GNOIssueRate;\n    LockedGNO[_GNOLockHash].timeOfLastWithdraw=now-now%5184000+5184000;\n  }\n  //@dev: Allows GNO holders with locked GNO to relock their GNOTokens\n  //@param: _GNOLockHash of their Locked GNO\n  //@param: lockingPeriod for the next locking\n  function relockGNO(bytes32 _GNOLockHash)public{\n    require(LockedGNO[_GNOLockHash].sender==msg.sender);\n    require(LockedGNO[_GNOLockHash].TimeOfLocking+LockedGNO[_GNOLockHash].LockingPeriod>now);\n    withdrawEUL(_GNOLockHash);\n    balances[msg.sender]+=LockedGNO[_GNOLockHash].GNOIssueRate*30/3;\n    LockedGNO[_GNOLockHash].TimeOfLocking=now-now%5184000;\n  }\n\n  /******Burning functions of EUL and GNO******/\n  // mapping Last30Days <-> BurnedEUL\n  mapping(uint=>uint) burnedEUL;\n  uint public sumOfEULBurndedLast30Days=0;\n  uint lastDayOfBurningDocumentation;\n  // mapping Last30Days <-> BurnedGNOValuedInUSD\n  mapping(uint=>uint) burnedGNOValuedInUSD;\n  uint public sumOfBurnedGNOValuedInUSDInLast30Days;\n  uint lastDayOfBurningDocumentationGNO;\n\n  //@dev: To be called from the Prediction markets and DutchX contracts to burn EUL\n  //@param: amount of EUL to be burned\n  function burnEUL(uint amount) public{\n    require(balances[msg.sender]>=amount);\n    balances[msg.sender]-=amount;\n    if((now/(5184000))%(30)==lastDayOfBurningDocumentation){\n      burnedEUL[(now/(5184000))%(30)]+=amount;\n    }\n    else{\n      sumOfEULBurndedLast30Days+=burnedEUL[(now/(5184000)-1)%(30)];\n      sumOfEULBurndedLast30Days-=burnedEUL[(now/(5184000))%(30)];\n      burnedEUL[(now/(5184000))%(30)]=amount;\n      lastDayOfBurningDocumentation=(now/(5184000))%(30);\n    }\n  }\n\n  //@dev: To be called from the FeeDutchAuction to document the fees collected\n  //@param: amount of EUL to be burned\n  function burnedGNO(uint amount) public{\n    require(Token(GNOTokenAddress).transferFrom(msg.sender, this, amount));\n    uint b=amount*OracleContract(oracleContract).getETHPrice(GNOTokenAddress)*OracleContract(oracleContract).getUSDETHPrice();\n    if((now/(5184000))%(30)==lastDayOfBurningDocumentationGNO){\n        burnedGNOValuedInUSD[(now/(5184000))%(30)]+=b;\n    }\n    else{\n      sumOfBurnedGNOValuedInUSDInLast30Days+=burnedGNOValuedInUSD[(now/(5184000)-1)%(30)];\n      sumOfBurnedGNOValuedInUSDInLast30Days-=burnedGNOValuedInUSD[(now/(5184000))%(30)];\n      burnedGNOValuedInUSD[(now/(5184000))%(30)]=b;\n      lastDayOfBurningDocumentationGNO=(now/(5184000))%(30);\n    }\n  }\n\n/*internal functions */\n//@dev: calculates the issueRate\n  function calcIssueRate() internal\n  returns(uint){\n      uint issueRate=0;\n    if(sumOfEULBurndedLast30Days<sumOfBurnedGNOValuedInUSDInLast30Days*9){\n        issueRate=((sumOfEULBurndedLast30Days+sumOfBurnedGNOValuedInUSDInLast30Days)*20-totalSupply())/30;\n    }\n    else if(sumOfEULBurndedLast30Days<sumOfBurnedGNOValuedInUSDInLast30Days){\n      issueRate=((sumOfEULBurndedLast30Days+sumOfBurnedGNOValuedInUSDInLast30Days)*20*9*sumOfBurnedGNOValuedInUSDInLast30Days/sumOfEULBurndedLast30Days-totalSupply())/30;\n    }\n    else{\n      issueRate=((sumOfEULBurndedLast30Days+sumOfBurnedGNOValuedInUSDInLast30Days)*20*9-totalSupply())/30;\n    }\n    return issueRate;\n  }\n\n}\n",
  "sourcePath": "/home/josojo/gnosis/WIZ-GNO/contracts/EUL.sol",
  "compiler": {
    "name": "solc",
    "version": "0.4.18+commit.9cf6e910.Emscripten.clang"
  },
  "schemaVersion": "1.0.1",
  "updatedAt": "2017-11-30T22:32:24.813Z"
}