{
  "contractName": "FeeDutchAuction",
  "abi": [
    {
      "constant": true,
      "inputs": [],
      "name": "GNOTokenAddress",
      "outputs": [
        {
          "name": "",
          "type": "address"
        }
      ],
      "payable": false,
      "stateMutability": "view",
      "type": "function"
    },
    {
      "inputs": [
        {
          "name": "_GNOTokenAddress",
          "type": "address"
        }
      ],
      "payable": false,
      "stateMutability": "nonpayable",
      "type": "constructor"
    }
  ],
  "bytecode": "0x6060604052341561000f57600080fd5b60405160208061016183398101604052808051906020019091905050806000806101000a81548173ffffffffffffffffffffffffffffffffffffffff021916908373ffffffffffffffffffffffffffffffffffffffff1602179055505060e78061007a6000396000f300606060405260043610603f576000357c0100000000000000000000000000000000000000000000000000000000900463ffffffff168063c1285d19146044575b600080fd5b3415604e57600080fd5b60546096565b604051808273ffffffffffffffffffffffffffffffffffffffff1673ffffffffffffffffffffffffffffffffffffffff16815260200191505060405180910390f35b6000809054906101000a900473ffffffffffffffffffffffffffffffffffffffff16815600a165627a7a72305820b465baa547f1f2f06584f70119b8213900a48ea250126ce5d4078d5687b277970029",
  "source": "pragma solidity ^0.4.16;\n\n\ncontract FeeDutchAuction {\n    address public GNOTokenAddress;\n\n    function FeeDutchAuction(address _GNOTokenAddress) public {\n        GNOTokenAddress = _GNOTokenAddress;\n    }\n}\n",
  "sourcePath": "/home/josojo/gnosis/WIZ-GNO/contracts/FeeDutchAuction.sol",
  "compiler": {
    "name": "solc",
    "version": "0.4.18+commit.9cf6e910.Emscripten.clang"
  },
  "schemaVersion": "1.0.1",
  "updatedAt": "2017-12-05T06:54:37.569Z"
}