{
  "contractName": "Math",
  "abi": [
    {
      "constant": true,
      "inputs": [],
      "name": "LN2",
      "outputs": [
        {
          "name": "",
          "type": "uint256"
        }
      ],
      "payable": false,
      "stateMutability": "view",
      "type": "function"
    },
    {
      "constant": true,
      "inputs": [
        {
          "name": "a",
          "type": "int256"
        },
        {
          "name": "b",
          "type": "int256"
        }
      ],
      "name": "safeToMul",
      "outputs": [
        {
          "name": "",
          "type": "bool"
        }
      ],
      "payable": false,
      "stateMutability": "view",
      "type": "function"
    },
    {
      "constant": true,
      "inputs": [],
      "name": "LOG2_E",
      "outputs": [
        {
          "name": "",
          "type": "uint256"
        }
      ],
      "payable": false,
      "stateMutability": "view",
      "type": "function"
    },
    {
      "constant": true,
      "inputs": [
        {
          "name": "x",
          "type": "uint256"
        }
      ],
      "name": "ln",
      "outputs": [
        {
          "name": "",
          "type": "int256"
        }
      ],
      "payable": false,
      "stateMutability": "view",
      "type": "function"
    },
    {
      "constant": true,
      "inputs": [
        {
          "name": "x",
          "type": "uint256"
        }
      ],
      "name": "floorLog2",
      "outputs": [
        {
          "name": "lo",
          "type": "int256"
        }
      ],
      "payable": false,
      "stateMutability": "view",
      "type": "function"
    },
    {
      "constant": true,
      "inputs": [
        {
          "name": "a",
          "type": "uint256"
        },
        {
          "name": "b",
          "type": "uint256"
        }
      ],
      "name": "safeToAdd",
      "outputs": [
        {
          "name": "",
          "type": "bool"
        }
      ],
      "payable": false,
      "stateMutability": "view",
      "type": "function"
    },
    {
      "constant": true,
      "inputs": [
        {
          "name": "a",
          "type": "uint256"
        },
        {
          "name": "b",
          "type": "uint256"
        }
      ],
      "name": "add",
      "outputs": [
        {
          "name": "",
          "type": "uint256"
        }
      ],
      "payable": false,
      "stateMutability": "view",
      "type": "function"
    },
    {
      "constant": true,
      "inputs": [
        {
          "name": "a",
          "type": "uint256"
        },
        {
          "name": "b",
          "type": "uint256"
        }
      ],
      "name": "min",
      "outputs": [
        {
          "name": "",
          "type": "uint256"
        }
      ],
      "payable": false,
      "stateMutability": "pure",
      "type": "function"
    },
    {
      "constant": true,
      "inputs": [
        {
          "name": "a",
          "type": "int256"
        },
        {
          "name": "b",
          "type": "int256"
        }
      ],
      "name": "safeToSub",
      "outputs": [
        {
          "name": "",
          "type": "bool"
        }
      ],
      "payable": false,
      "stateMutability": "view",
      "type": "function"
    },
    {
      "constant": true,
      "inputs": [
        {
          "name": "a",
          "type": "int256"
        },
        {
          "name": "b",
          "type": "int256"
        }
      ],
      "name": "add",
      "outputs": [
        {
          "name": "",
          "type": "int256"
        }
      ],
      "payable": false,
      "stateMutability": "view",
      "type": "function"
    },
    {
      "constant": true,
      "inputs": [
        {
          "name": "a",
          "type": "int256"
        },
        {
          "name": "b",
          "type": "int256"
        }
      ],
      "name": "sub",
      "outputs": [
        {
          "name": "",
          "type": "int256"
        }
      ],
      "payable": false,
      "stateMutability": "view",
      "type": "function"
    },
    {
      "constant": true,
      "inputs": [
        {
          "name": "a",
          "type": "uint256"
        },
        {
          "name": "b",
          "type": "uint256"
        }
      ],
      "name": "sub",
      "outputs": [
        {
          "name": "",
          "type": "uint256"
        }
      ],
      "payable": false,
      "stateMutability": "view",
      "type": "function"
    },
    {
      "constant": true,
      "inputs": [
        {
          "name": "a",
          "type": "int256"
        },
        {
          "name": "b",
          "type": "int256"
        }
      ],
      "name": "mul",
      "outputs": [
        {
          "name": "",
          "type": "int256"
        }
      ],
      "payable": false,
      "stateMutability": "view",
      "type": "function"
    },
    {
      "constant": true,
      "inputs": [
        {
          "name": "a",
          "type": "uint256"
        },
        {
          "name": "b",
          "type": "uint256"
        }
      ],
      "name": "ONE",
      "outputs": [
        {
          "name": "",
          "type": "uint256"
        }
      ],
      "payable": false,
      "stateMutability": "view",
      "type": "function"
    },
    {
      "constant": true,
      "inputs": [
        {
          "name": "a",
          "type": "uint256"
        },
        {
          "name": "b",
          "type": "uint256"
        }
      ],
      "name": "mul",
      "outputs": [
        {
          "name": "",
          "type": "uint256"
        }
      ],
      "payable": false,
      "stateMutability": "view",
      "type": "function"
    },
    {
      "constant": true,
      "inputs": [
        {
          "name": "a",
          "type": "uint256"
        },
        {
          "name": "b",
          "type": "uint256"
        }
      ],
      "name": "safeToMul",
      "outputs": [
        {
          "name": "",
          "type": "bool"
        }
      ],
      "payable": false,
      "stateMutability": "view",
      "type": "function"
    },
    {
      "constant": true,
      "inputs": [
        {
          "name": "nums",
          "type": "int256[]"
        },
        {
          "name": "b",
          "type": "int256"
        }
      ],
      "name": "max",
      "outputs": [
        {
          "name": "max",
          "type": "int256"
        }
      ],
      "payable": false,
      "stateMutability": "view",
      "type": "function"
    },
    {
      "constant": true,
      "inputs": [
        {
          "name": "a",
          "type": "int256"
        },
        {
          "name": "b",
          "type": "int256"
        }
      ],
      "name": "safeToAdd",
      "outputs": [
        {
          "name": "",
          "type": "bool"
        }
      ],
      "payable": false,
      "stateMutability": "view",
      "type": "function"
    },
    {
      "constant": true,
      "inputs": [
        {
          "name": "a",
          "type": "uint256"
        },
        {
          "name": "b",
          "type": "uint256"
        }
      ],
      "name": "safeToSub",
      "outputs": [
        {
          "name": "",
          "type": "bool"
        }
      ],
      "payable": false,
      "stateMutability": "view",
      "type": "function"
    },
    {
      "constant": true,
      "inputs": [
        {
          "name": "x",
          "type": "int256"
        }
      ],
      "name": "exp",
      "outputs": [
        {
          "name": "",
          "type": "uint256"
        }
      ],
      "payable": false,
      "stateMutability": "view",
      "type": "function"
    }
  ],
  "bytecode": "0x6060604052341561000f57600080fd5b61111f8061001e6000396000f300606060405260043610610112576000357c0100000000000000000000000000000000000000000000000000000000900463ffffffff16806302780677146101175780631f47ba291461013557806324902e241461016e57806324d4e90a1461018c57806345b8bafc146101b85780634e30a66c146101e4578063771602f71461021d5780637ae2b5c7146102525780639030434114610287578063a5f3c23b146102c0578063adefc37b146102f5578063b67d77c51461032a578063bbe93d911461035f578063c2ee3a0814610394578063c8a4ac9c146103b2578063cb10fa76146103e7578063ccc1381414610420578063dc08a80b14610483578063e31c71c4146104bc578063e46751e3146104f5575b600080fd5b61011f610521565b6040518082815260200191505060405180910390f35b610154600480803590602001909190803590602001909190505061052d565b604051808215151515815260200191505060405180910390f35b610176610551565b6040518082815260200191505060405180910390f35b6101a2600480803590602001909190505061055e565b6040518082815260200191505060405180910390f35b6101ce6004808035906020019091905050610902565b6040518082815260200191505060405180910390f35b61020360048080359060200190919080359060200190919050506109b9565b604051808215151515815260200191505060405180910390f35b61023c60048080359060200190919080359060200190919050506109c9565b6040518082815260200191505060405180910390f35b61027160048080359060200190919080359060200190919050506109eb565b6040518082815260200191505060405180910390f35b6102a66004808035906020019091908035906020019091905050610a07565b604051808215151515815260200191505060405180910390f35b6102df6004808035906020019091908035906020019091905050610a3b565b6040518082815260200191505060405180910390f35b6103146004808035906020019091908035906020019091905050610a5d565b6040518082815260200191505060405180910390f35b6103496004808035906020019091908035906020019091905050610a7f565b6040518082815260200191505060405180910390f35b61037e6004808035906020019091908035906020019091905050610aa1565b6040518082815260200191505060405180910390f35b61039c610ac3565b6040518082815260200191505060405180910390f35b6103d16004808035906020019091908035906020019091905050610ad0565b6040518082815260200191505060405180910390f35b6104066004808035906020019091908035906020019091905050610af2565b604051808215151515815260200191505060405180910390f35b61046d600480803590602001908201803590602001908080602002602001604051908101604052809392919081815260200183836020028082843782019150505050505091905050610b16565b6040518082815260200191505060405180910390f35b6104a26004808035906020019091908035906020019091905050610ba7565b604051808215151515815260200191505060405180910390f35b6104db6004808035906020019091908035906020019091905050610bdb565b604051808215151515815260200191505060405180910390f35b61050b6004808035906020019091905050610be9565b6040518082815260200191505060405180910390f35b67b17217f7d1cf79ac81565b6000808214806105495750828283850281151561054657fe5b05145b905092915050565b680171547652b82fe17781565b60008060008060008060008711151561057657600080fd5b61057f87610902565b9450600085121561059b5784600003879060020a0293506105a6565b84879060020a900493505b68010000000000000000840168010000000000000000808603028115156105c957fe5b0592508291506801000000000000000083680100000000000000008586028115156105f057fe5b05028115156105fb57fe5b05905060038181151561060a57fe5b058201915068010000000000000000836801000000000000000085840281151561063057fe5b050281151561063b57fe5b05905060058181151561064a57fe5b058201915068010000000000000000836801000000000000000085840281151561067057fe5b050281151561067b57fe5b05905060078181151561068a57fe5b05820191506801000000000000000083680100000000000000008584028115156106b057fe5b05028115156106bb57fe5b0590506009818115156106ca57fe5b05820191506801000000000000000083680100000000000000008584028115156106f057fe5b05028115156106fb57fe5b059050600b8181151561070a57fe5b058201915068010000000000000000836801000000000000000085840281151561073057fe5b050281151561073b57fe5b059050600d8181151561074a57fe5b058201915068010000000000000000836801000000000000000085840281151561077057fe5b050281151561077b57fe5b059050600f8181151561078a57fe5b05820191506801000000000000000083680100000000000000008584028115156107b057fe5b05028115156107bb57fe5b0590506011818115156107ca57fe5b05820191506801000000000000000083680100000000000000008584028115156107f057fe5b05028115156107fb57fe5b05905060138181151561080a57fe5b058201915068010000000000000000836801000000000000000085840281151561083057fe5b050281151561083b57fe5b05905060158181151561084a57fe5b058201915068010000000000000000836801000000000000000085840281151561087057fe5b050281151561087b57fe5b05905060178181151561088a57fe5b05820191506801000000000000000083680100000000000000008584028115156108b057fe5b05028115156108bb57fe5b0590506019818115156108ca57fe5b058201915081600202680171547652b82fe17768010000000000000000808802028115156108f457fe5b050195505050505050919050565b60008060007fffffffffffffffffffffffffffffffffffffffffffffffffffffffffffffffc0925060c1915060018383019060020a900590505b816001840112156109b25760008112801561096857506801000000000000000081600003859060020a02105b8061098f57506000811215801561098e57506801000000000000000081859060020a9004105b5b1561099c578091506109a0565b8092505b60018383019060020a9005905061093c565b5050919050565b6000828284011015905092915050565b60006109d583836109b9565b15156109e057600080fd5b818301905092915050565b6000818310156109fd57829050610a01565b8190505b92915050565b6000808212158015610a1b57508282840313155b80610a335750600082128015610a32575082828403135b5b905092915050565b6000610a478383610ba7565b1515610a5257600080fd5b818301905092915050565b6000610a698383610a07565b1515610a7457600080fd5b818303905092915050565b6000610a8b8383610bdb565b1515610a9657600080fd5b818303905092915050565b6000610aad838361052d565b1515610ab857600080fd5b818302905092915050565b6801000000000000000081565b6000610adc8383610af2565b1515610ae757600080fd5b818302905092915050565b600080821480610b0e57508282838502811515610b0b57fe5b04145b905092915050565b60008060008351111515610b2957600080fd5b7f80000000000000000000000000000000000000000000000000000000000000009150600090505b8251811015610ba157818382815181101515610b6957fe5b906020019060200201511315610b94578281815181101515610b8757fe5b9060200190602002015191505b8080600101915050610b51565b50919050565b6000808212158015610bbb57508282840112155b80610bd35750600082128015610bd2575082828401125b5b905092915050565b600081831015905092915050565b600080600080600068851591f9dd5b9b40d78613151515610c0957600080fd5b7fffffffffffffffffffffffffffffffffffffffffffffffd3a37a020b8c21950d861215610c3a57600094506110ea565b67b17217f7d1cf79ac680100000000000000008702811515610c5857fe5b059550600086121515610c98576801000000000000000086811515610c7957fe5b0593506801000000000000000086811515610c9057fe5b079250610cd8565b60016801000000000000000087811515610cae57fe5b050393506801000000000000000086600003811515610cc957fe5b07680100000000000000000392505b829150680100000000000000009050680100000000000000008267b17217f7d1cf79ab02811515610d0557fe5b048101905068010000000000000000838302811515610d2057fe5b0491506801000000000000000082673d7f7bff058b1d5002811515610d4157fe5b048101905068010000000000000000838302811515610d5c57fe5b0491506801000000000000000082670e35846b82505fc502811515610d7d57fe5b048101905068010000000000000000838302811515610d9857fe5b0491506801000000000000000082670276556df749cee502811515610db957fe5b048101905068010000000000000000838302811515610dd457fe5b0491506801000000000000000082665761ff9e299cc402811515610df457fe5b048101905068010000000000000000838302811515610e0f57fe5b0491506801000000000000000082660a184897c363c302811515610e2f57fe5b048101905068010000000000000000838302811515610e4a57fe5b049150680100000000000000008265ffe5fe2c458602811515610e6957fe5b048101905068010000000000000000838302811515610e8457fe5b049150680100000000000000008265162c0223a5c802811515610ea357fe5b048101905068010000000000000000838302811515610ebe57fe5b04915068010000000000000000826501b5253d395e02811515610edd57fe5b048101905068010000000000000000838302811515610ef857fe5b0491506801000000000000000082641e4cf5158b02811515610f1657fe5b048101905068010000000000000000838302811515610f3157fe5b04915068010000000000000000826401e8cac73502811515610f4f57fe5b048101905068010000000000000000838302811515610f6a57fe5b0491506801000000000000000082631c3bd65002811515610f8757fe5b048101905068010000000000000000838302811515610fa257fe5b0491506801000000000000000082630181619302811515610fbf57fe5b048101905068010000000000000000838302811515610fda57fe5b04915068010000000000000000826213149602811515610ff657fe5b04810190506801000000000000000083830281151561101157fe5b049150680100000000000000008261e1b70281151561102c57fe5b04810190506801000000000000000083830281151561104757fe5b04915068010000000000000000826109c70281151561106257fe5b04810190506000841215156110d1576000846101000382600082121561108457fe5b9060020a900411156110b8577fffffffffffffffffffffffffffffffffffffffffffffffffffffffffffffffff94506110ea565b838160008212156110c557fe5b9060020a0294506110ea565b836000038160008212156110e157fe5b9060020a900494505b505050509190505600a165627a7a72305820a47ef1ea00df2ed536739fc60a7a995e9d87fec9e7a1ab22490ad948d026a7970029",
  "source": "pragma solidity 0.4.18;\n\n\n/// @title Math library - Allows calculation of logarithmic and exponential functions\n/// @author Alan Lu - <alan.lu@gnosis.pm>\n/// @author Stefan George - <stefan@gnosis.pm>\nlibrary Math {\n\n    /*\n     *  Constants\n     */\n    // This is equal to 1 in our calculations\n    uint public constant ONE =  0x10000000000000000;\n    uint public constant LN2 = 0xb17217f7d1cf79ac;\n    uint public constant LOG2_E = 0x171547652b82fe177;\n\n    /*\n     *  Public functions\n     */\n    /// @dev Returns natural exponential function value of given x\n    /// @param x x\n    /// @return e**x\n    function exp(int x)\n        public\n        constant\n        returns (uint)\n    {\n        // revert if x is > MAX_POWER, where\n        // MAX_POWER = int(mp.floor(mp.log(mpf(2**256 - 1) / ONE) * ONE))\n        require(x <= 2454971259878909886679);\n        // return 0 if exp(x) is tiny, using\n        // MIN_POWER = int(mp.floor(mp.log(mpf(1) / ONE) * ONE))\n        if (x < -818323753292969962227)\n            return 0;\n        // Transform so that e^x -> 2^x\n        x = x * int(ONE) / int(LN2);\n        // 2^x = 2^whole(x) * 2^frac(x)\n        //       ^^^^^^^^^^ is a bit shift\n        // so Taylor expand on z = frac(x)\n        int shift;\n        uint z;\n        if (x >= 0) {\n            shift = x / int(ONE);\n            z = uint(x % int(ONE));\n        }\n        else {\n            shift = x / int(ONE) - 1;\n            z = ONE - uint(-x % int(ONE));\n        }\n        // 2^x = 1 + (ln 2) x + (ln 2)^2/2! x^2 + ...\n        //\n        // Can generate the z coefficients using mpmath and the following lines\n        // >>> from mpmath import mp\n        // >>> mp.dps = 100\n        // >>> ONE =  0x10000000000000000\n        // >>> print('\\n'.join(hex(int(mp.log(2)**i / mp.factorial(i) * ONE)) for i in range(1, 7)))\n        // 0xb17217f7d1cf79ab\n        // 0x3d7f7bff058b1d50\n        // 0xe35846b82505fc5\n        // 0x276556df749cee5\n        // 0x5761ff9e299cc4\n        // 0xa184897c363c3\n        uint zpow = z;\n        uint result = ONE;\n        result += 0xb17217f7d1cf79ab * zpow / ONE;\n        zpow = zpow * z / ONE;\n        result += 0x3d7f7bff058b1d50 * zpow / ONE;\n        zpow = zpow * z / ONE;\n        result += 0xe35846b82505fc5 * zpow / ONE;\n        zpow = zpow * z / ONE;\n        result += 0x276556df749cee5 * zpow / ONE;\n        zpow = zpow * z / ONE;\n        result += 0x5761ff9e299cc4 * zpow / ONE;\n        zpow = zpow * z / ONE;\n        result += 0xa184897c363c3 * zpow / ONE;\n        zpow = zpow * z / ONE;\n        result += 0xffe5fe2c4586 * zpow / ONE;\n        zpow = zpow * z / ONE;\n        result += 0x162c0223a5c8 * zpow / ONE;\n        zpow = zpow * z / ONE;\n        result += 0x1b5253d395e * zpow / ONE;\n        zpow = zpow * z / ONE;\n        result += 0x1e4cf5158b * zpow / ONE;\n        zpow = zpow * z / ONE;\n        result += 0x1e8cac735 * zpow / ONE;\n        zpow = zpow * z / ONE;\n        result += 0x1c3bd650 * zpow / ONE;\n        zpow = zpow * z / ONE;\n        result += 0x1816193 * zpow / ONE;\n        zpow = zpow * z / ONE;\n        result += 0x131496 * zpow / ONE;\n        zpow = zpow * z / ONE;\n        result += 0xe1b7 * zpow / ONE;\n        zpow = zpow * z / ONE;\n        result += 0x9c7 * zpow / ONE;\n        if (shift >= 0) {\n            if (result >> (256-shift) > 0)\n                return (2**256-1);\n            return result << shift;\n        }\n        else\n            return result >> (-shift);\n    }\n\n    /// @dev Returns natural logarithm value of given x\n    /// @param x x\n    /// @return ln(x)\n    function ln(uint x)\n        public\n        constant\n        returns (int)\n    {\n        require(x > 0);\n        // binary search for floor(log2(x))\n        int ilog2 = floorLog2(x);\n        int z;\n        if (ilog2 < 0)\n            z = int(x << uint(-ilog2));\n        else\n            z = int(x >> uint(ilog2));\n        // z = x * 2^-⌊log₂x⌋\n        // so 1 <= z < 2\n        // and ln z = ln x - ⌊log₂x⌋/log₂e\n        // so just compute ln z using artanh series\n        // and calculate ln x from that\n        int term = (z - int(ONE)) * int(ONE) / (z + int(ONE));\n        int halflnz = term;\n        int termpow = term * term / int(ONE) * term / int(ONE);\n        halflnz += termpow / 3;\n        termpow = termpow * term / int(ONE) * term / int(ONE);\n        halflnz += termpow / 5;\n        termpow = termpow * term / int(ONE) * term / int(ONE);\n        halflnz += termpow / 7;\n        termpow = termpow * term / int(ONE) * term / int(ONE);\n        halflnz += termpow / 9;\n        termpow = termpow * term / int(ONE) * term / int(ONE);\n        halflnz += termpow / 11;\n        termpow = termpow * term / int(ONE) * term / int(ONE);\n        halflnz += termpow / 13;\n        termpow = termpow * term / int(ONE) * term / int(ONE);\n        halflnz += termpow / 15;\n        termpow = termpow * term / int(ONE) * term / int(ONE);\n        halflnz += termpow / 17;\n        termpow = termpow * term / int(ONE) * term / int(ONE);\n        halflnz += termpow / 19;\n        termpow = termpow * term / int(ONE) * term / int(ONE);\n        halflnz += termpow / 21;\n        termpow = termpow * term / int(ONE) * term / int(ONE);\n        halflnz += termpow / 23;\n        termpow = termpow * term / int(ONE) * term / int(ONE);\n        halflnz += termpow / 25;\n        return (ilog2 * int(ONE)) * int(ONE) / int(LOG2_E) + 2 * halflnz;\n    }\n\n    /// @dev Returns base 2 logarithm value of given x\n    /// @param x x\n    /// @return logarithmic value\n    function floorLog2(uint x)\n        public\n        constant\n        returns (int lo)\n    {\n        lo = -64;\n        int hi = 193;\n        // I use a shift here instead of / 2 because it floors instead of rounding towards 0\n        int mid = (hi + lo) >> 1;\n        while((lo + 1) < hi) {\n            if (mid < 0 && x << uint(-mid) < ONE || mid >= 0 && x >> uint(mid) < ONE)\n                hi = mid;\n            else\n                lo = mid;\n            mid = (hi + lo) >> 1;\n        }\n    }\n\n    /// @dev Returns maximum of an array\n    /// @param nums Numbers to look through\n    /// @return Maximum number\n    function max(int[] nums)\n        public\n        constant\n        returns (int max)\n    {\n        require(nums.length > 0);\n        max = -2**255;\n        for (uint i = 0; i < nums.length; i++)\n            if (nums[i] > max)\n                max = nums[i];\n    }\n\n    /// @dev Returns whether an add operation causes an overflow\n    /// @param a First addend\n    /// @param b Second addend\n    /// @return Did no overflow occur?\n    function safeToAdd(uint a, uint b)\n        public\n        constant\n        returns (bool)\n    {\n        return a + b >= a;\n    }\n\n    /// @dev Returns whether a subtraction operation causes an underflow\n    /// @param a Minuend\n    /// @param b Subtrahend\n    /// @return Did no underflow occur?\n    function safeToSub(uint a, uint b)\n        public\n        constant\n        returns (bool)\n    {\n        return a >= b;\n    }\n\n    /// @dev Returns whether a multiply operation causes an overflow\n    /// @param a First factor\n    /// @param b Second factor\n    /// @return Did no overflow occur?\n    function safeToMul(uint a, uint b)\n        public\n        constant\n        returns (bool)\n    {\n        return b == 0 || a * b / b == a;\n    }\n\n    /// @dev Returns sum if no overflow occurred\n    /// @param a First addend\n    /// @param b Second addend\n    /// @return Sum\n    function add(uint a, uint b)\n        public\n        constant\n        returns (uint)\n    {\n        require(safeToAdd(a, b));\n        return a + b;\n    }\n\n    /// @dev Returns difference if no overflow occurred\n    /// @param a Minuend\n    /// @param b Subtrahend\n    /// @return Difference\n    function sub(uint a, uint b)\n        public\n        constant\n        returns (uint)\n    {\n        require(safeToSub(a, b));\n        return a - b;\n    }\n\n    /// @dev Returns product if no overflow occurred\n    /// @param a First factor\n    /// @param b Second factor\n    /// @return Product\n    function mul(uint a, uint b)\n        public\n        constant\n        returns (uint)\n    {\n        require(safeToMul(a, b));\n        return a * b;\n    }\n\n    /// @dev Returns whether an add operation causes an overflow\n    /// @param a First addend\n    /// @param b Second addend\n    /// @return Did no overflow occur?\n    function safeToAdd(int a, int b)\n        public\n        constant\n        returns (bool)\n    {\n        return (b >= 0 && a + b >= a) || (b < 0 && a + b < a);\n    }\n\n    /// @dev Returns whether a subtraction operation causes an underflow\n    /// @param a Minuend\n    /// @param b Subtrahend\n    /// @return Did no underflow occur?\n    function safeToSub(int a, int b)\n        public\n        constant\n        returns (bool)\n    {\n        return (b >= 0 && a - b <= a) || (b < 0 && a - b > a);\n    }\n\n    /// @dev Returns whether a multiply operation causes an overflow\n    /// @param a First factor\n    /// @param b Second factor\n    /// @return Did no overflow occur?\n    function safeToMul(int a, int b)\n        public\n        constant\n        returns (bool)\n    {\n        return (b == 0) || (a * b / b == a);\n    }\n\n    /// @dev Returns sum if no overflow occurred\n    /// @param a First addend\n    /// @param b Second addend\n    /// @return Sum\n    function add(int a, int b)\n        public\n        constant\n        returns (int)\n    {\n        require(safeToAdd(a, b));\n        return a + b;\n    }\n\n    /// @dev Returns difference if no overflow occurred\n    /// @param a Minuend\n    /// @param b Subtrahend\n    /// @return Difference\n    function sub(int a, int b)\n        public\n        constant\n        returns (int)\n    {\n        require(safeToSub(a, b));\n        return a - b;\n    }\n\n    /// @dev Returns product if no overflow occurred\n    /// @param a First factor\n    /// @param b Second factor\n    /// @return Product\n    function mul(int a, int b)\n        public\n        constant\n        returns (int)\n    {\n        require(safeToMul(a, b));\n        return a * b;\n    }\n    /// @dev Returns product if no overflow occurred\n    /// @param a First factor\n    /// @param b Second factor\n    /// @return Product\n    function min(uint a, uint b)\n        public\n        pure\n        returns (uint)\n    {\n        if(a<b) return a;\n        else return b;\n    }\n}\n",
  "sourcePath": "/home/josojo/gnosis/WIZ-GNO/contracts/Utils/Math.sol",
  "compiler": {
    "name": "solc",
    "version": "0.4.18+commit.9cf6e910.Emscripten.clang"
  },
  "schemaVersion": "1.0.1",
  "updatedAt": "2017-12-04T06:55:07.576Z"
}