{
  "contractName": "OracleContract",
  "abi": [
    {
      "constant": true,
      "inputs": [],
      "name": "lastPriceETHUSD",
      "outputs": [
        {
          "name": "",
          "type": "uint256"
        }
      ],
      "payable": false,
      "stateMutability": "view",
      "type": "function"
    },
    {
      "constant": false,
      "inputs": [
        {
          "name": "GNOTokenAddress",
          "type": "address"
        }
      ],
      "name": "getETHPrice",
      "outputs": [
        {
          "name": "",
          "type": "uint256"
        }
      ],
      "payable": false,
      "stateMutability": "nonpayable",
      "type": "function"
    },
    {
      "constant": false,
      "inputs": [],
      "name": "getUSDETHPrice",
      "outputs": [
        {
          "name": "",
          "type": "uint256"
        }
      ],
      "payable": false,
      "stateMutability": "nonpayable",
      "type": "function"
    },
    {
      "inputs": [
        {
          "name": "_DutchExchange",
          "type": "address"
        }
      ],
      "payable": false,
      "stateMutability": "nonpayable",
      "type": "constructor"
    }
  ],
  "bytecode": "0x606060405260006001556000600260006101000a81548173ffffffffffffffffffffffffffffffffffffffff021916908373ffffffffffffffffffffffffffffffffffffffff160217905550341561005657600080fd5b60405160208061028f8339810160405280805190602001909190505080600260006101000a81548173ffffffffffffffffffffffffffffffffffffffff021916908373ffffffffffffffffffffffffffffffffffffffff160217905550506101cc806100c36000396000f300606060405260043610610057576000357c0100000000000000000000000000000000000000000000000000000000900463ffffffff1680632ca4e2ba1461005c57806397cecb2514610085578063a3ca17b2146100d2575b600080fd5b341561006757600080fd5b61006f6100fb565b6040518082815260200191505060405180910390f35b341561009057600080fd5b6100bc600480803573ffffffffffffffffffffffffffffffffffffffff16906020019091905050610101565b6040518082815260200191505060405180910390f35b34156100dd57600080fd5b6100e5610196565b6040518082815260200191505060405180910390f35b60015481565b6000806000808473ffffffffffffffffffffffffffffffffffffffff1673ffffffffffffffffffffffffffffffffffffffff168152602001908152602001600020541415151561015057600080fd5b6000808373ffffffffffffffffffffffffffffffffffffffff1673ffffffffffffffffffffffffffffffffffffffff168152602001908152602001600020549050919050565b60006001549050905600a165627a7a72305820b349a29b551c49d22280d22f1cedd01c2e8df07c55302485f37f59e88d454a5b0029",
  "source": "pragma solidity ^0.4.16;\n\ncontract OracleContract{\n\n  mapping (address => uint)lastPrices;\n  uint public lastPriceETHUSD=0;\n  address DutchExchange=0;\n\n  function OracleContract(address _DutchExchange) public{\n    DutchExchange=_DutchExchange;\n  }\n\n  function getETHPrice(address GNOTokenAddress) public\n  returns (uint)\n  {\n    // lastPrices[GNOTokenAddress]=DutchExchange.getlastPrice(GNOTokenAddress)\n    require(lastPrices[GNOTokenAddress]!=0);\n    return lastPrices[GNOTokenAddress];\n  }\n  function getUSDETHPrice() public\n  returns (uint){\n      // lastPricesETHUSD=calculatePricesFromOracles\n    return lastPriceETHUSD;\n  }\n}\n",
  "sourcePath": "/home/josojo/gnosis/WIZ-GNO/contracts/OracleContract.sol",
  "compiler": {
    "name": "solc",
    "version": "0.4.18+commit.9cf6e910.Emscripten.clang"
  },
  "schemaVersion": "1.0.1",
  "updatedAt": "2017-12-04T06:54:41.311Z"
}