{
  "contractName": "OracleContract",
  "abi": [
    {
      "constant": true,
      "inputs": [],
      "name": "lastPriceETHUSD",
      "outputs": [
        {
          "name": "",
          "type": "uint256"
        }
      ],
      "payable": false,
      "stateMutability": "view",
      "type": "function"
    },
    {
      "constant": true,
      "inputs": [
        {
          "name": "GNOTokenAddress",
          "type": "address"
        }
      ],
      "name": "getUSDETHPrice",
      "outputs": [
        {
          "name": "",
          "type": "uint256"
        }
      ],
      "payable": false,
      "stateMutability": "view",
      "type": "function"
    },
    {
      "constant": true,
      "inputs": [
        {
          "name": "tokenAddress",
          "type": "address"
        }
      ],
      "name": "getETHvsTokenPrice",
      "outputs": [
        {
          "name": "",
          "type": "uint256"
        }
      ],
      "payable": false,
      "stateMutability": "view",
      "type": "function"
    },
    {
      "inputs": [
        {
          "name": "_dutchExchange",
          "type": "address"
        }
      ],
      "payable": false,
      "stateMutability": "nonpayable",
      "type": "constructor"
    }
  ],
  "bytecode": "0x606060405260006001556000600260006101000a81548173ffffffffffffffffffffffffffffffffffffffff021916908373ffffffffffffffffffffffffffffffffffffffff160217905550341561005657600080fd5b60405160208061028f8339810160405280805190602001909190505080600260006101000a81548173ffffffffffffffffffffffffffffffffffffffff021916908373ffffffffffffffffffffffffffffffffffffffff160217905550506101cc806100c36000396000f300606060405260043610610057576000357c0100000000000000000000000000000000000000000000000000000000900463ffffffff1680632ca4e2ba1461005c578063a3ca17b214610085578063ade7c712146100ae575b600080fd5b341561006757600080fd5b61006f6100fb565b6040518082815260200191505060405180910390f35b341561009057600080fd5b610098610101565b6040518082815260200191505060405180910390f35b34156100b957600080fd5b6100e5600480803573ffffffffffffffffffffffffffffffffffffffff1690602001909190505061010b565b6040518082815260200191505060405180910390f35b60015481565b6000600154905090565b6000806000808473ffffffffffffffffffffffffffffffffffffffff1673ffffffffffffffffffffffffffffffffffffffff168152602001908152602001600020541415151561015a57600080fd5b6000808373ffffffffffffffffffffffffffffffffffffffff1673ffffffffffffffffffffffffffffffffffffffff1681526020019081526020016000205490509190505600a165627a7a72305820cbd64d091af4fae6960965c7382b13e1748fc98a4b273c2bc78b3dd44154b8b50029",
  "source": "pragma solidity ^0.4.18;\n\n\ncontract OracleContract {\n\n    mapping (address => uint)lastPrices;\n    uint public lastPriceETHUSD = 0;\n    address dutchExchange = 0;\n\n    function OracleContract(address _dutchExchange) public {\n        dutchExchange = _dutchExchange;\n    }\n\n    function getETHvsTokenPrice(address tokenAddress) public\n        view\n        returns (uint)\n    {\n        // lastPrices[GNOTokenAddress] = dutchExchange.getlastPrice(GNOTokenAddress)\n        require(lastPrices[tokenAddress]!=0);\n        return lastPrices[tokenAddress];\n    }\n\n    function getUSDETHPrice() public\n        view\n        returns (uint)\n    {\n        // lastPricesETHUSD = calculatePricesFromOracles();\n        return lastPriceETHUSD;\n    }\n}\n",
  "sourcePath": "/home/josojo/gnosis/WIZ-GNO/contracts/OracleContract.sol",
  "compiler": {
    "name": "solc",
    "version": "0.4.18+commit.9cf6e910.Emscripten.clang"
  },
  "schemaVersion": "1.0.1",
  "updatedAt": "2017-12-05T06:54:37.579Z"
}